{
  "contractName": "ThoughtEditionFactory",
  "abi": [
    {
      "inputs": [
        {
          "internalType": "string",
          "name": "_editionBaseURI",
          "type": "string"
        }
      ],
      "stateMutability": "nonpayable",
      "type": "constructor"
    },
    {
      "anonymous": false,
      "inputs": [
        {
          "indexed": true,
          "internalType": "string",
          "name": "userName",
          "type": "string"
        },
        {
          "indexed": true,
          "internalType": "address",
          "name": "authorAddress",
          "type": "address"
        },
        {
          "indexed": false,
          "internalType": "string",
          "name": "name",
          "type": "string"
        }
      ],
      "name": "AuthorRegistered",
      "type": "event"
    },
    {
      "anonymous": false,
      "inputs": [
        {
          "indexed": true,
          "internalType": "address",
          "name": "factory",
          "type": "address"
        },
        {
          "indexed": true,
          "internalType": "address",
          "name": "owner",
          "type": "address"
        },
        {
          "indexed": true,
          "internalType": "address",
          "name": "clone",
          "type": "address"
        }
      ],
      "name": "CloneDeployed",
      "type": "event"
    },
    {
      "anonymous": false,
      "inputs": [
        {
          "indexed": true,
          "internalType": "address",
          "name": "previousOwner",
          "type": "address"
        },
        {
          "indexed": true,
          "internalType": "address",
          "name": "newOwner",
          "type": "address"
        }
      ],
      "name": "OwnershipTransferred",
      "type": "event"
    },
    {
      "inputs": [],
      "name": "acceptOwnership",
      "outputs": [],
      "stateMutability": "nonpayable",
      "type": "function"
    },
    {
      "inputs": [
        {
          "internalType": "address",
          "name": "",
          "type": "address"
        }
      ],
      "name": "authorAddressToUserName",
      "outputs": [
        {
          "internalType": "string",
          "name": "",
          "type": "string"
        }
      ],
      "stateMutability": "view",
      "type": "function"
    },
    {
      "inputs": [
        {
          "internalType": "address",
          "name": "",
          "type": "address"
        },
        {
          "internalType": "uint256",
          "name": "",
          "type": "uint256"
        }
      ],
      "name": "authorToEditions",
      "outputs": [
        {
          "internalType": "address",
          "name": "",
          "type": "address"
        }
      ],
      "stateMutability": "view",
      "type": "function"
    },
    {
      "inputs": [
        {
          "internalType": "string",
          "name": "",
          "type": "string"
        }
      ],
      "name": "authors",
      "outputs": [
        {
          "internalType": "string",
          "name": "userName",
          "type": "string"
        },
        {
          "internalType": "string",
          "name": "name",
          "type": "string"
        },
        {
          "internalType": "address",
          "name": "walletAddress",
          "type": "address"
        },
        {
          "internalType": "string",
          "name": "description",
          "type": "string"
        }
      ],
      "stateMutability": "view",
      "type": "function"
    },
    {
      "inputs": [
        {
          "internalType": "address",
          "name": "",
          "type": "address"
        },
        {
          "internalType": "uint256",
          "name": "",
          "type": "uint256"
        }
      ],
      "name": "buyerToEditions",
      "outputs": [
        {
          "internalType": "address",
          "name": "",
          "type": "address"
        }
      ],
      "stateMutability": "view",
      "type": "function"
    },
    {
      "inputs": [],
      "name": "cancelOwnershipTransfer",
      "outputs": [],
      "stateMutability": "nonpayable",
      "type": "function"
    },
    {
      "inputs": [
        {
          "internalType": "string",
          "name": "title",
          "type": "string"
        },
        {
          "internalType": "string",
          "name": "imageURI",
          "type": "string"
        },
        {
          "internalType": "string",
          "name": "contentURI",
          "type": "string"
        },
        {
          "internalType": "uint256",
          "name": "price",
          "type": "uint256"
        },
        {
          "internalType": "address",
          "name": "paymentERC20Addr",
          "type": "address"
        }
      ],
      "name": "createEdition",
      "outputs": [
        {
          "internalType": "address",
          "name": "clone",
          "type": "address"
        }
      ],
      "stateMutability": "nonpayable",
      "type": "function"
    },
    {
      "inputs": [
        {
          "internalType": "address",
          "name": "",
          "type": "address"
        }
      ],
      "name": "editionExists",
      "outputs": [
        {
          "internalType": "bool",
          "name": "",
          "type": "bool"
        }
      ],
      "stateMutability": "view",
      "type": "function"
    },
    {
      "inputs": [
        {
          "internalType": "string",
          "name": "userName",
          "type": "string"
        }
      ],
      "name": "getAuthorDetails",
      "outputs": [
        {
          "components": [
            {
              "internalType": "string",
              "name": "userName",
              "type": "string"
            },
            {
              "internalType": "string",
              "name": "name",
              "type": "string"
            },
            {
              "internalType": "address",
              "name": "walletAddress",
              "type": "address"
            },
            {
              "internalType": "string",
              "name": "description",
              "type": "string"
            }
          ],
          "internalType": "struct IThoughtEditionFactory.AuthorDetails",
          "name": "",
          "type": "tuple"
        }
      ],
      "stateMutability": "view",
      "type": "function"
    },
    {
      "inputs": [],
      "name": "getAuthorDetailsByAddress",
      "outputs": [
        {
          "components": [
            {
              "internalType": "string",
              "name": "userName",
              "type": "string"
            },
            {
              "internalType": "string",
              "name": "name",
              "type": "string"
            },
            {
              "internalType": "address",
              "name": "walletAddress",
              "type": "address"
            },
            {
              "internalType": "string",
              "name": "description",
              "type": "string"
            }
          ],
          "internalType": "struct IThoughtEditionFactory.AuthorDetails",
          "name": "",
          "type": "tuple"
        }
      ],
      "stateMutability": "view",
      "type": "function"
    },
    {
      "inputs": [
        {
          "internalType": "address",
          "name": "author",
          "type": "address"
        },
        {
          "internalType": "uint256",
          "name": "index",
          "type": "uint256"
        }
      ],
      "name": "getAuthorEdition",
      "outputs": [
        {
          "internalType": "address",
          "name": "",
          "type": "address"
        }
      ],
      "stateMutability": "view",
      "type": "function"
    },
    {
      "inputs": [
        {
          "internalType": "address",
          "name": "author",
          "type": "address"
        }
      ],
      "name": "getAuthorEditions",
      "outputs": [
        {
          "internalType": "address[]",
          "name": "",
          "type": "address[]"
        }
      ],
      "stateMutability": "view",
      "type": "function"
    },
    {
      "inputs": [
        {
          "internalType": "address",
          "name": "author",
          "type": "address"
        }
      ],
      "name": "getAuthorEditionsCount",
      "outputs": [
        {
          "internalType": "uint256",
          "name": "",
          "type": "uint256"
        }
      ],
      "stateMutability": "view",
      "type": "function"
    },
    {
      "inputs": [],
      "name": "getAuthorUserName",
      "outputs": [
        {
          "internalType": "string",
          "name": "",
          "type": "string"
        }
      ],
      "stateMutability": "view",
      "type": "function"
    },
    {
      "inputs": [
        {
          "internalType": "address",
          "name": "buyer",
          "type": "address"
        }
      ],
      "name": "getClaimedEditions",
      "outputs": [
        {
          "internalType": "address[]",
          "name": "",
          "type": "address[]"
        }
      ],
      "stateMutability": "view",
      "type": "function"
    },
    {
      "inputs": [],
      "name": "implementation",
      "outputs": [
        {
          "internalType": "address",
          "name": "",
          "type": "address"
        }
      ],
      "stateMutability": "view",
      "type": "function"
    },
    {
      "inputs": [],
      "name": "isNextOwner",
      "outputs": [
        {
          "internalType": "bool",
          "name": "",
          "type": "bool"
        }
      ],
      "stateMutability": "view",
      "type": "function"
    },
    {
      "inputs": [],
      "name": "isOwner",
      "outputs": [
        {
          "internalType": "bool",
          "name": "",
          "type": "bool"
        }
      ],
      "stateMutability": "view",
      "type": "function"
    },
    {
      "inputs": [
        {
          "internalType": "string",
          "name": "userName",
          "type": "string"
        }
      ],
      "name": "isUsernameAvailable",
      "outputs": [
        {
          "internalType": "bool",
          "name": "",
          "type": "bool"
        }
      ],
      "stateMutability": "view",
      "type": "function"
    },
    {
      "inputs": [],
      "name": "owner",
      "outputs": [
        {
          "internalType": "address",
          "name": "",
          "type": "address"
        }
      ],
      "stateMutability": "view",
      "type": "function"
    },
    {
      "inputs": [
        {
          "internalType": "string",
          "name": "userName",
          "type": "string"
        },
        {
          "internalType": "string",
          "name": "name",
          "type": "string"
        },
        {
          "internalType": "string",
          "name": "description",
          "type": "string"
        }
      ],
      "name": "registerAuthor",
      "outputs": [],
      "stateMutability": "nonpayable",
      "type": "function"
    },
    {
      "inputs": [
        {
          "internalType": "address",
          "name": "buyer",
          "type": "address"
        }
      ],
      "name": "registerClaim",
      "outputs": [],
      "stateMutability": "nonpayable",
      "type": "function"
    },
    {
      "inputs": [],
      "name": "renounceOwnership",
      "outputs": [],
      "stateMutability": "nonpayable",
      "type": "function"
    },
    {
      "inputs": [
        {
          "internalType": "bytes32",
          "name": "",
          "type": "bytes32"
        }
      ],
      "name": "salts",
      "outputs": [
        {
          "internalType": "bool",
          "name": "",
          "type": "bool"
        }
      ],
      "stateMutability": "view",
      "type": "function"
    },
    {
      "inputs": [
        {
          "internalType": "address",
          "name": "edition",
          "type": "address"
        },
        {
          "internalType": "bool",
          "name": "val",
          "type": "bool"
        }
      ],
      "name": "setBlacklisted",
      "outputs": [],
      "stateMutability": "nonpayable",
      "type": "function"
    },
    {
      "inputs": [
        {
          "internalType": "address",
          "name": "nextOwner_",
          "type": "address"
        }
      ],
      "name": "transferOwnership",
      "outputs": [],
      "stateMutability": "nonpayable",
      "type": "function"
    }
  ],
  "bytecode": "0x60806040523480156200001157600080fd5b50d380156200001f57600080fd5b50d280156200002d57600080fd5b50604051620070fd380380620070fd8339810160408190526200005091620001d4565b336200005c81620000d5565b5080516200007290600390602084019062000120565b5030816040516200008390620001af565b620000909291906200028c565b604051809103906000f080158015620000ad573d6000803e3d6000fd5b50600280546001600160a01b0319166001600160a01b03929092169190911790555062000356565b600080546001600160a01b0319166001600160a01b03831690811782556040519091907f8be0079c531659141344cd1fd0a4f28419497f9722a3daafe3b4186f6b6457e0908290a350565b8280546200012e9062000303565b90600052602060002090601f0160209004810192826200015257600085556200019d565b82601f106200016d57805160ff19168380011785556200019d565b828001600101855582156200019d579182015b828111156200019d57825182559160200191906001019062000180565b50620001ab929150620001bd565b5090565b614a4680620026b783390190565b5b80821115620001ab5760008155600101620001be565b600060208284031215620001e757600080fd5b81516001600160401b0380821115620001ff57600080fd5b818401915084601f8301126200021457600080fd5b81518181111562000229576200022962000340565b604051601f8201601f19908116603f0116810190838211818310171562000254576200025462000340565b816040528281528760208487010111156200026e57600080fd5b62000281836020830160208801620002d0565b979650505050505050565b60018060a01b03831681526040602082015260008251806040840152620002bb816060850160208701620002d0565b601f01601f1916919091016060019392505050565b60005b83811015620002ed578181015183820152602001620002d3565b83811115620002fd576000848401525b50505050565b600181811c908216806200031857607f821691505b602082108114156200033a57634e487b7160e01b600052602260045260246000fd5b50919050565b634e487b7160e01b600052604160045260246000fd5b61235180620003666000396000f3fe608060405234801561001057600080fd5b50d3801561001d57600080fd5b50d2801561002a57600080fd5b50600436106101c85760003560e01c80638eca3fba11610108578063d01dd6d2116100b1578063ed459df21161008b578063ed459df214610423578063f2fde38b14610443578063f65ce82e14610456578063f69c6dec1461046957600080fd5b8063d01dd6d2146103ca578063db048e5f146103dd578063e6d283a61461040057600080fd5b8063bcdd33c5116100e2578063bcdd33c514610381578063bdc601bd14610394578063c5f33862146103a757600080fd5b80638eca3fba1461033a5780638f32d59b14610342578063a7d1e5821461036e57600080fd5b80634de01cdb11610175578063715018a61161014f578063715018a6146102f757806379ba5097146102ff578063818e7b39146103075780638da5cb5b1461031a57600080fd5b80634de01cdb1461028b5780635c60da1b146102935780635cc8f75a146102b357600080fd5b806323452b9c116101a657806323452b9c1461024e57806337a5011d14610258578063414414211461026b57600080fd5b806305f77454146101cd5780630b6dcd26146101f6578063181ba4d714610216575b600080fd5b6101e06101db366004611cf5565b61047c565b6040516101ed919061219a565b60405180910390f35b610209610204366004611c54565b6106c7565b6040516101ed9190612127565b610229610224366004611dba565b610761565b60405173ffffffffffffffffffffffffffffffffffffffff90911681526020016101ed565b610256610813565b005b610256610266366004611d32565b6108c3565b61027e610279366004611c54565b610a89565b6040516101ed91906120cd565b610209610b19565b6002546102299073ffffffffffffffffffffffffffffffffffffffff1681565b6102e96102c1366004611c54565b73ffffffffffffffffffffffffffffffffffffffff1660009081526004602052604090205490565b6040519081526020016101ed565b610256610bba565b610256610c45565b61027e610315366004611c54565b610d4c565b6000546102299073ffffffffffffffffffffffffffffffffffffffff1681565b6101e0610dda565b60005473ffffffffffffffffffffffffffffffffffffffff1633145b60405190151581526020016101ed565b61025661037c366004611c54565b611032565b61022961038f366004611cb2565b61112f565b6102296103a2366004611cb2565b61121f565b61035e6103b5366004611c54565b60056020526000908152604090205460ff1681565b6102566103d8366004611c76565b611264565b6103f06103eb366004611cf5565b61136d565b6040516101ed949392919061213a565b61035e61040e366004611cdc565b60076020526000908152604090205460ff1681565b60015473ffffffffffffffffffffffffffffffffffffffff16331461035e565b610256610451366004611c54565b611554565b610229610464366004611cb2565b611699565b61035e610477366004611cf5565b6116b5565b6104bd60405180608001604052806060815260200160608152602001600073ffffffffffffffffffffffffffffffffffffffff168152602001606081525090565b6008826040516104cd9190611f10565b90815260200160405180910390206040518060800160405290816000820180546104f690612269565b80601f016020809104026020016040519081016040528092919081815260200182805461052290612269565b801561056f5780601f106105445761010080835404028352916020019161056f565b820191906000526020600020905b81548152906001019060200180831161055257829003601f168201915b5050505050815260200160018201805461058890612269565b80601f01602080910402602001604051908101604052809291908181526020018280546105b490612269565b80156106015780601f106105d657610100808354040283529160200191610601565b820191906000526020600020905b8154815290600101906020018083116105e457829003601f168201915b5050509183525050600282015473ffffffffffffffffffffffffffffffffffffffff16602082015260038201805460409092019161063e90612269565b80601f016020809104026020016040519081016040528092919081815260200182805461066a90612269565b80156106b75780601f1061068c576101008083540402835291602001916106b7565b820191906000526020600020905b81548152906001019060200180831161069a57829003601f168201915b5050505050815250509050919050565b600960205260009081526040902080546106e090612269565b80601f016020809104026020016040519081016040528092919081815260200182805461070c90612269565b80156107595780601f1061072e57610100808354040283529160200191610759565b820191906000526020600020905b81548152906001019060200180831161073c57829003601f168201915b505050505081565b6000806040518060e001604052808881526020018781526020018681526020018581526020018473ffffffffffffffffffffffffffffffffffffffff168152602001428152602001600081525090506107ba338261170e565b73ffffffffffffffffffffffffffffffffffffffff8116600090815260056020526040902080547fffffffffffffffffffffffffffffffffffffffffffffffffffffffffffffff00166001179055979650505050505050565b60005473ffffffffffffffffffffffffffffffffffffffff163314610899576040517f08c379a000000000000000000000000000000000000000000000000000000000815260206004820152601860248201527f63616c6c6572206973206e6f7420746865206f776e65722e000000000000000060448201526064015b60405180910390fd5b600180547fffffffffffffffffffffffff0000000000000000000000000000000000000000169055565b6108cc836116b5565b610932576040517f08c379a000000000000000000000000000000000000000000000000000000000815260206004820152601960248201527f557365726e616d6520697320616c72656164792074616b656e000000000000006044820152606401610890565b604080516080810182528481526020810184905233818301526060810183905290518190600890610964908790611f10565b9081526020016040518091039020600082015181600001908051906020019061098e929190611acd565b5060208281015180516109a79260018501920190611acd565b5060408201516002820180547fffffffffffffffffffffffff00000000000000000000000000000000000000001673ffffffffffffffffffffffffffffffffffffffff90921691909117905560608201518051610a0e916003840191602090910190611acd565b50503360009081526009602090815260409091208651610a3393509091870190611acd565b506040513390610a44908690611f10565b60405180910390207f15e86d0f43d582a76bcca7f005f1b65980757c0b148b9f95e3340dc917759b7585604051610a7b9190612127565b60405180910390a350505050565b73ffffffffffffffffffffffffffffffffffffffff8116600090815260046020908152604091829020805483518184028101840190945280845260609392830182828015610b0d57602002820191906000526020600020905b815473ffffffffffffffffffffffffffffffffffffffff168152600190910190602001808311610ae2575b50505050509050919050565b336000908152600960205260409020805460609190610b3790612269565b80601f0160208091040260200160405190810160405280929190818152602001828054610b6390612269565b8015610bb05780601f10610b8557610100808354040283529160200191610bb0565b820191906000526020600020905b815481529060010190602001808311610b9357829003601f168201915b5050505050905090565b60005473ffffffffffffffffffffffffffffffffffffffff163314610c3b576040517f08c379a000000000000000000000000000000000000000000000000000000000815260206004820152601860248201527f63616c6c6572206973206e6f7420746865206f776e65722e00000000000000006044820152606401610890565b610c43611980565b565b60015473ffffffffffffffffffffffffffffffffffffffff163314610cec576040517f08c379a000000000000000000000000000000000000000000000000000000000815260206004820152602c60248201527f63757272656e74206f776e6572206d757374207365742063616c6c657220617360448201527f206e657874206f776e65722e00000000000000000000000000000000000000006064820152608401610890565b600180547fffffffffffffffffffffffff0000000000000000000000000000000000000000908116909155600080543392168217815560405182917f8be0079c531659141344cd1fd0a4f28419497f9722a3daafe3b4186f6b6457e091a3565b73ffffffffffffffffffffffffffffffffffffffff8116600090815260066020908152604091829020805483518184028101840190945280845260609392830182828015610b0d5760200282019190600052602060002090815473ffffffffffffffffffffffffffffffffffffffff168152600190910190602001808311610ae25750505050509050919050565b610e1b60405180608001604052806060815260200160608152602001600073ffffffffffffffffffffffffffffffffffffffff168152602001606081525090565b33600090815260096020526040908190209051600891610e3a91611f2c565b9081526020016040518091039020604051806080016040529081600082018054610e6390612269565b80601f0160208091040260200160405190810160405280929190818152602001828054610e8f90612269565b8015610edc5780601f10610eb157610100808354040283529160200191610edc565b820191906000526020600020905b815481529060010190602001808311610ebf57829003601f168201915b50505050508152602001600182018054610ef590612269565b80601f0160208091040260200160405190810160405280929190818152602001828054610f2190612269565b8015610f6e5780601f10610f4357610100808354040283529160200191610f6e565b820191906000526020600020905b815481529060010190602001808311610f5157829003601f168201915b5050509183525050600282015473ffffffffffffffffffffffffffffffffffffffff166020820152600382018054604090920191610fab90612269565b80601f0160208091040260200160405190810160405280929190818152602001828054610fd790612269565b80156110245780601f10610ff957610100808354040283529160200191611024565b820191906000526020600020905b81548152906001019060200180831161100757829003601f168201915b505050505081525050905090565b3360009081526005602052604090205460ff166110d1576040517f08c379a000000000000000000000000000000000000000000000000000000000815260206004820152603560248201527f546869732066756e6374696f6e2063616e206f6c6e792062652063616c6c656460448201527f2062792065646974696f6e20636f6e74726163747300000000000000000000006064820152608401610890565b73ffffffffffffffffffffffffffffffffffffffff1660009081526006602090815260408220805460018101825590835291200180547fffffffffffffffffffffffff00000000000000000000000000000000000000001633179055565b73ffffffffffffffffffffffffffffffffffffffff821660009081526004602052604081205482106111bd576040517f08c379a000000000000000000000000000000000000000000000000000000000815260206004820152601260248201527f496e646578206f7574206f662072616e676500000000000000000000000000006044820152606401610890565b73ffffffffffffffffffffffffffffffffffffffff831660009081526004602052604090208054839081106111f4576111f46122bd565b60009182526020909120015473ffffffffffffffffffffffffffffffffffffffff1690505b92915050565b6004602052816000526040600020818154811061123b57600080fd5b60009182526020909120015473ffffffffffffffffffffffffffffffffffffffff169150829050565b60005473ffffffffffffffffffffffffffffffffffffffff1633146112e5576040517f08c379a000000000000000000000000000000000000000000000000000000000815260206004820152601860248201527f63616c6c6572206973206e6f7420746865206f776e65722e00000000000000006044820152606401610890565b6040517f36efbc830000000000000000000000000000000000000000000000000000000081528115156004820152829073ffffffffffffffffffffffffffffffffffffffff8216906336efbc8390602401600060405180830381600087803b15801561135057600080fd5b505af1158015611364573d6000803e3d6000fd5b50505050505050565b805160208183018101805160088252928201919093012091528054819061139390612269565b80601f01602080910402602001604051908101604052809291908181526020018280546113bf90612269565b801561140c5780601f106113e15761010080835404028352916020019161140c565b820191906000526020600020905b8154815290600101906020018083116113ef57829003601f168201915b50505050509080600101805461142190612269565b80601f016020809104026020016040519081016040528092919081815260200182805461144d90612269565b801561149a5780601f1061146f5761010080835404028352916020019161149a565b820191906000526020600020905b81548152906001019060200180831161147d57829003601f168201915b5050506002840154600385018054949573ffffffffffffffffffffffffffffffffffffffff9092169491935091506114d190612269565b80601f01602080910402602001604051908101604052809291908181526020018280546114fd90612269565b801561154a5780601f1061151f5761010080835404028352916020019161154a565b820191906000526020600020905b81548152906001019060200180831161152d57829003601f168201915b5050505050905084565b60005473ffffffffffffffffffffffffffffffffffffffff1633146115d5576040517f08c379a000000000000000000000000000000000000000000000000000000000815260206004820152601860248201527f63616c6c6572206973206e6f7420746865206f776e65722e00000000000000006044820152606401610890565b73ffffffffffffffffffffffffffffffffffffffff8116611652576040517f08c379a000000000000000000000000000000000000000000000000000000000815260206004820152601f60248201527f4e657874206f776e657220697320746865207a65726f20616464726573732e006044820152606401610890565b600180547fffffffffffffffffffffffff00000000000000000000000000000000000000001673ffffffffffffffffffffffffffffffffffffffff92909216919091179055565b6006602052816000526040600020818154811061123b57600080fd5b60008073ffffffffffffffffffffffffffffffffffffffff166008836040516116de9190611f10565b9081526040519081900360200190206002015473ffffffffffffffffffffffffffffffffffffffff161492915050565b805160a082015160408084015190516000938493611730938893602001611ea7565b604080517fffffffffffffffffffffffffffffffffffffffffffffffffffffffffffffffe081840301815291815281516020928301206000818152600790935291205490915060ff1615611806576040517f08c379a000000000000000000000000000000000000000000000000000000000815260206004820152602960248201527f45646974696f6e2077697468207468652073616d652073616c7420616c72656160448201527f64792065786973747300000000000000000000000000000000000000000000006064820152608401610890565b600081815260076020526040902080547fffffffffffffffffffffffffffffffffffffffffffffffffffffffffffffff001660011790556002546118609073ffffffffffffffffffffffffffffffffffffffff16826119ef565b6040517fbca79e9a00000000000000000000000000000000000000000000000000000000815290925073ffffffffffffffffffffffffffffffffffffffff83169063bca79e9a906118b79087908790600401611fff565b600060405180830381600087803b1580156118d157600080fd5b505af11580156118e5573d6000803e3d6000fd5b5050336000818152600460209081526040808320805460018101825590845291832090910180547fffffffffffffffffffffffff00000000000000000000000000000000000000001673ffffffffffffffffffffffffffffffffffffffff8981169182179092559151919550891693507fe30784b97c85804517b7c35cb82a1ba9f5f5e7a90ceb80ffab76908cb9b1a7089190a45092915050565b6000805460405173ffffffffffffffffffffffffffffffffffffffff909116907f8be0079c531659141344cd1fd0a4f28419497f9722a3daafe3b4186f6b6457e0908390a3600080547fffffffffffffffffffffffff0000000000000000000000000000000000000000169055565b60006040517f3d602d80600a3d3981f3363d3d373d3d3d363d7300000000000000000000000081528360601b60148201527f5af43d82803e903d91602b57fd5bf300000000000000000000000000000000006028820152826037826000f591505073ffffffffffffffffffffffffffffffffffffffff8116611219576040517f08c379a000000000000000000000000000000000000000000000000000000000815260206004820152601760248201527f455243313136373a2063726561746532206661696c65640000000000000000006044820152606401610890565b828054611ad990612269565b90600052602060002090601f016020900481019282611afb5760008555611b41565b82601f10611b1457805160ff1916838001178555611b41565b82800160010185558215611b41579182015b82811115611b41578251825591602001919060010190611b26565b50611b4d929150611b51565b5090565b5b80821115611b4d5760008155600101611b52565b6000813574ffffffffffffffffffffffffffffffffffffffffff81168114611b8d57600080fd5b73ffffffffffffffffffffffffffffffffffffffff1692915050565b600082601f830112611bba57600080fd5b813567ffffffffffffffff80821115611bd557611bd56122ec565b604051601f83017fffffffffffffffffffffffffffffffffffffffffffffffffffffffffffffffe0908116603f01168101908282118183101715611c1b57611c1b6122ec565b81604052838152866020858801011115611c3457600080fd5b836020870160208301376000602085830101528094505050505092915050565b600060208284031215611c6657600080fd5b611c6f82611b66565b9392505050565b60008060408385031215611c8957600080fd5b611c9283611b66565b915060208301358015158114611ca757600080fd5b809150509250929050565b60008060408385031215611cc557600080fd5b611cce83611b66565b946020939093013593505050565b600060208284031215611cee57600080fd5b5035919050565b600060208284031215611d0757600080fd5b813567ffffffffffffffff811115611d1e57600080fd5b611d2a84828501611ba9565b949350505050565b600080600060608486031215611d4757600080fd5b833567ffffffffffffffff80821115611d5f57600080fd5b611d6b87838801611ba9565b94506020860135915080821115611d8157600080fd5b611d8d87838801611ba9565b93506040860135915080821115611da357600080fd5b50611db086828701611ba9565b9150509250925092565b600080600080600060a08688031215611dd257600080fd5b853567ffffffffffffffff80821115611dea57600080fd5b611df689838a01611ba9565b96506020880135915080821115611e0c57600080fd5b611e1889838a01611ba9565b95506040880135915080821115611e2e57600080fd5b50611e3b88828901611ba9565b93505060608601359150611e5160808701611b66565b90509295509295909350565b60008151808452611e75816020860160208601612239565b601f017fffffffffffffffffffffffffffffffffffffffffffffffffffffffffffffffe0169290920160200192915050565b7fffffffffffffffffffffffffffffffffffffffff0000000000000000000000008560601b16815260008451611ee4816014850160208901612239565b80830190508460148201528351611f02816034840160208801612239565b016034019695505050505050565b60008251611f22818460208701612239565b9190910192915050565b600080835481600182811c915080831680611f4857607f831692505b6020808410821415611f81577f4e487b710000000000000000000000000000000000000000000000000000000086526022600452602486fd5b818015611f955760018114611fc457611ff1565b7fffffffffffffffffffffffffffffffffffffffffffffffffffffffffffffff00861689528489019650611ff1565b60008a81526020902060005b86811015611fe95781548b820152908501908301611fd0565b505084890196505b509498975050505050505050565b600073ffffffffffffffffffffffffffffffffffffffff808516835260406020840152835160e06040850152612039610120850182611e5d565b905060208501517fffffffffffffffffffffffffffffffffffffffffffffffffffffffffffffffc0808684030160608701526120758383611e5d565b92506040870151915080868403016080870152506120938282611e5d565b915050606085015160a08501528160808601511660c085015260a085015160e085015260c085015161010085015280925050509392505050565b6020808252825182820181905260009190848201906040850190845b8181101561211b57835173ffffffffffffffffffffffffffffffffffffffff16835292840192918401916001016120e9565b50909695505050505050565b602081526000611c6f6020830184611e5d565b60808152600061214d6080830187611e5d565b828103602084015261215f8187611e5d565b905073ffffffffffffffffffffffffffffffffffffffff85166040840152828103606084015261218f8185611e5d565b979650505050505050565b6020815260008251608060208401526121b660a0840182611e5d565b905060208401517fffffffffffffffffffffffffffffffffffffffffffffffffffffffffffffffe0808584030160408601526121f28383611e5d565b925073ffffffffffffffffffffffffffffffffffffffff60408701511660608601526060860151915080858403016080860152506122308282611e5d565b95945050505050565b60005b8381101561225457818101518382015260200161223c565b83811115612263576000848401525b50505050565b600181811c9082168061227d57607f821691505b602082108114156122b7577f4e487b7100000000000000000000000000000000000000000000000000000000600052602260045260246000fd5b50919050565b7f4e487b7100000000000000000000000000000000000000000000000000000000600052603260045260246000fd5b7f4e487b7100000000000000000000000000000000000000000000000000000000600052604160045260246000fdfea26474726f6e582212203c0015ee4d6d6999ae26bf56ac6526d560a38b67401076a6d045d421a3203acd64736f6c6343000806003360a06040523480156200001157600080fd5b50d380156200001f57600080fd5b50d280156200002d57600080fd5b5060405162004a4638038062004a4683398101604081905262000050916200023d565b604080518082018252600e81526d2a3437bab3b43a22b234ba34b7b760911b60208083019182528351808501909452600384526215121560ea1b90840152815160009391620000a29185919062000197565b508051620000b890600190602084019062000197565b505050620000cc816200014b60201b60201c565b506001600160a01b0382166200011b5760405162461bcd60e51b815260206004820152601060248201526f6d7573742073657420666163746f727960801b604482015260640160405180910390fd5b6001600160601b0319606083901b1660805280516200014290601290602084019062000197565b5050506200039b565b600a80546001600160a01b0319166001600160a01b0383169081179091556040516000907f8be0079c531659141344cd1fd0a4f28419497f9722a3daafe3b4186f6b6457e0908290a350565b828054620001a59062000348565b90600052602060002090601f016020900481019282620001c9576000855562000214565b82601f10620001e457805160ff191683800117855562000214565b8280016001018555821562000214579182015b8281111562000214578251825591602001919060010190620001f7565b506200022292915062000226565b5090565b5b8082111562000222576000815560010162000227565b600080604083850312156200025157600080fd5b82516001600160a81b03811681146200026957600080fd5b6020848101516001600160a01b03929092169350906001600160401b03808211156200029457600080fd5b818601915086601f830112620002a957600080fd5b815181811115620002be57620002be62000385565b604051601f8201601f19908116603f01168101908382118183101715620002e957620002e962000385565b8160405282815289868487010111156200030257600080fd5b600093505b8284101562000326578484018601518185018701529285019262000307565b82841115620003385760008684830101525b8096505050505050509250929050565b600181811c908216806200035d57607f821691505b602082108114156200037f57634e487b7160e01b600052602260045260246000fd5b50919050565b634e487b7160e01b600052604160045260246000fd5b60805160601c614677620003cf60003960008181610a2d01528181610fde01528181611c8e015261255401526146776000f3fe6080604052600436106102bb5760003560e01c8063715018a61161016e578063a94d8811116100cb578063c87b56dd1161007f578063e985e9c511610064578063e985e9c514610ab9578063ed459df214610b1c578063f2fde38b14610b5657600080fd5b8063c87b56dd14610a4f578063cf09e0d014610a8957600080fd5b8063b88d4fde116100b0578063b88d4fde1461098d578063bca79e9a146109c7578063c45a015514610a0157600080fd5b8063a94d88111461091f578063a98adf7f1461095357600080fd5b80638da5cb5b1161012257806395d89b411161010757806395d89b4114610886578063a035b1fe146108b5578063a22cb465146108e557600080fd5b80638da5cb5b146108125780638f32d59b1461084c57600080fd5b80637817ef3e116101535780637817ef3e1461077857806379ba5097146107a757806388ac8284146107d657600080fd5b8063715018a61461071a57806377b46d4d1461074957600080fd5b806340d097c31161021c57806355f804b3116101d05780636352211e116101b55780636352211e1461069e57806364edfbf0146106d857806370a08231146106e057600080fd5b806355f804b3146106355780635b2bd79e1461066f57600080fd5b806342966c681161020157806342966c68146105925780634a79d50c146105cc5780634f6ccce7146105fb57600080fd5b806340d097c31461051e57806342842e0e1461055857600080fd5b806318160ddd1161027357806323b872dd1161025857806323b872dd146104705780632f745c59146104aa57806336efbc83146104e457600080fd5b806318160ddd1461040857806323452b9c1461044157600080fd5b8063081812fc116102a4578063081812fc1461034b578063095ea7b31461039d578063135d088d146103d957600080fd5b806301ffc9a7146102c057806306fdde031461030f575b600080fd5b3480156102cc57600080fd5b50d380156102d957600080fd5b50d280156102e657600080fd5b506102fa6102f5366004613b8d565b610b90565b60405190151581526020015b60405180910390f35b34801561031b57600080fd5b50d3801561032857600080fd5b50d2801561033557600080fd5b5061033e610ba1565b6040516103069190614142565b34801561035757600080fd5b50d3801561036457600080fd5b50d2801561037157600080fd5b50610385610380366004613bfc565b610c33565b6040516001600160a01b039091168152602001610306565b3480156103a957600080fd5b50d380156103b657600080fd5b50d280156103c357600080fd5b506103d76103d2366004613b29565b610c5a565b005b3480156103e557600080fd5b50d380156103f257600080fd5b50d280156103ff57600080fd5b5061033e610d91565b34801561041457600080fd5b50d3801561042157600080fd5b50d2801561042e57600080fd5b506008545b604051908152602001610306565b34801561044d57600080fd5b50d3801561045a57600080fd5b50d2801561046757600080fd5b506103d7610e1f565b34801561047c57600080fd5b50d3801561048957600080fd5b50d2801561049657600080fd5b506103d76104a5366004613943565b610ea3565b3480156104b657600080fd5b50d380156104c357600080fd5b50d280156104d057600080fd5b506104336104df366004613b29565b610f2b565b3480156104f057600080fd5b50d380156104fd57600080fd5b50d2801561050a57600080fd5b506103d7610519366004613b53565b610fd3565b34801561052a57600080fd5b50d3801561053757600080fd5b50d2801561054457600080fd5b506103d76105533660046138f5565b61107c565b34801561056457600080fd5b50d3801561057157600080fd5b50d2801561057e57600080fd5b506103d761058d366004613943565b6110ff565b34801561059e57600080fd5b50d380156105ab57600080fd5b50d280156105b857600080fd5b506103d76105c7366004613bfc565b61111a565b3480156105d857600080fd5b50d380156105e557600080fd5b50d280156105f257600080fd5b5061033e6111a1565b34801561060757600080fd5b50d3801561061457600080fd5b50d2801561062157600080fd5b50610433610630366004613bfc565b6111ae565b34801561064157600080fd5b50d3801561064e57600080fd5b50d2801561065b57600080fd5b506103d761066a366004613bc7565b611252565b34801561067b57600080fd5b50d3801561068857600080fd5b50d2801561069557600080fd5b5061033e6112bf565b3480156106aa57600080fd5b50d380156106b757600080fd5b50d280156106c457600080fd5b506103856106d3366004613bfc565b6112cc565b6103d7611331565b3480156106ec57600080fd5b50d380156106f957600080fd5b50d2801561070657600080fd5b506104336107153660046138f5565b6114c1565b34801561072657600080fd5b50d3801561073357600080fd5b50d2801561074057600080fd5b506103d761155b565b34801561075557600080fd5b50d3801561076257600080fd5b50d2801561076f57600080fd5b5061033e6115bd565b34801561078457600080fd5b50d3801561079157600080fd5b50d2801561079e57600080fd5b506103d7611612565b3480156107b357600080fd5b50d380156107c057600080fd5b50d280156107cd57600080fd5b506103d761187c565b3480156107e257600080fd5b50d380156107ef57600080fd5b50d280156107fc57600080fd5b5061080561195f565b6040516103069190614155565b34801561081e57600080fd5b50d3801561082b57600080fd5b50d2801561083857600080fd5b50600a54610385906001600160a01b031681565b34801561085857600080fd5b50d3801561086557600080fd5b50d2801561087257600080fd5b50600a546001600160a01b031633146102fa565b34801561089257600080fd5b50d3801561089f57600080fd5b50d280156108ac57600080fd5b5061033e611bdb565b3480156108c157600080fd5b50d380156108ce57600080fd5b50d280156108db57600080fd5b50610433600f5481565b3480156108f157600080fd5b50d380156108fe57600080fd5b50d2801561090b57600080fd5b506103d761091a3660046139fb565b611bea565b34801561092b57600080fd5b50d3801561093857600080fd5b50d2801561094557600080fd5b506013546102fa9060ff1681565b34801561095f57600080fd5b50d3801561096c57600080fd5b50d2801561097957600080fd5b50601054610385906001600160a01b031681565b34801561099957600080fd5b50d380156109a657600080fd5b50d280156109b357600080fd5b506103d76109c236600461397f565b611bf5565b3480156109d357600080fd5b50d380156109e057600080fd5b50d280156109ed57600080fd5b506103d76109fc366004613a32565b611c83565b348015610a0d57600080fd5b50d38015610a1a57600080fd5b50d28015610a2757600080fd5b506103857f000000000000000000000000000000000000000000000000000000000000000081565b348015610a5b57600080fd5b50d38015610a6857600080fd5b50d28015610a7557600080fd5b5061033e610a84366004613bfc565b611d98565b348015610a9557600080fd5b50d38015610aa257600080fd5b50d28015610aaf57600080fd5b5061043360115481565b348015610ac557600080fd5b50d38015610ad257600080fd5b50d28015610adf57600080fd5b506102fa610aee366004613910565b6001600160a01b03918216600090815260056020908152604080832093909416825291909152205460ff1690565b348015610b2857600080fd5b50d38015610b3557600080fd5b50d28015610b4257600080fd5b50600b546001600160a01b031633146102fa565b348015610b6257600080fd5b50d38015610b6f57600080fd5b50d28015610b7c57600080fd5b506103d7610b8b3660046138f5565b611f35565b6000610b9b8261201f565b92915050565b606060008054610bb090614437565b80601f0160208091040260200160405190810160405280929190818152602001828054610bdc90614437565b8015610c295780601f10610bfe57610100808354040283529160200191610c29565b820191906000526020600020905b815481529060010190602001808311610c0c57829003601f168201915b5050505050905090565b6000610c3e82612075565b506000908152600460205260409020546001600160a01b031690565b6000610c65826112cc565b9050806001600160a01b0316836001600160a01b03161415610cf45760405162461bcd60e51b815260206004820152602160248201527f4552433732313a20617070726f76616c20746f2063757272656e74206f776e6560448201527f720000000000000000000000000000000000000000000000000000000000000060648201526084015b60405180910390fd5b336001600160a01b0382161480610d105750610d108133610aee565b610d825760405162461bcd60e51b815260206004820152603d60248201527f4552433732313a20617070726f76652063616c6c6572206973206e6f7420746f60448201527f6b656e206f776e6572206f7220617070726f76656420666f7220616c6c0000006064820152608401610ceb565b610d8c83836120d9565b505050565b600e8054610d9e90614437565b80601f0160208091040260200160405190810160405280929190818152602001828054610dca90614437565b8015610e175780601f10610dec57610100808354040283529160200191610e17565b820191906000526020600020905b815481529060010190602001808311610dfa57829003601f168201915b505050505081565b600a546001600160a01b03163314610e795760405162461bcd60e51b815260206004820152601860248201527f63616c6c6572206973206e6f7420746865206f776e65722e00000000000000006044820152606401610ceb565b600b80547fffffffffffffffffffffffff0000000000000000000000000000000000000000169055565b610eae335b8261215f565b610f205760405162461bcd60e51b815260206004820152602d60248201527f4552433732313a2063616c6c6572206973206e6f7420746f6b656e206f776e6560448201527f72206f7220617070726f766564000000000000000000000000000000000000006064820152608401610ceb565b610d8c8383836121de565b6000610f36836114c1565b8210610faa5760405162461bcd60e51b815260206004820152602b60248201527f455243373231456e756d657261626c653a206f776e657220696e646578206f7560448201527f74206f6620626f756e64730000000000000000000000000000000000000000006064820152608401610ceb565b506001600160a01b03919091166000908152600660209081526040808320938352929052205490565b336001600160a01b037f0000000000000000000000000000000000000000000000000000000000000000161461104b5760405162461bcd60e51b815260206004820152601360248201527f756e617574686f72697a65642063616c6c6572000000000000000000000000006044820152606401610ceb565b601380547fffffffffffffffffffffffffffffffffffffffffffffffffffffffffffffff0016911515919091179055565b600a546001600160a01b031633146110d65760405162461bcd60e51b815260206004820152601860248201527f63616c6c6572206973206e6f7420746865206f776e65722e00000000000000006044820152606401610ceb565b60006110e160145490565b90506110f1601480546001019055565b6110fb828261242c565b5050565b610d8c83838360405180602001604052806000815250611bf5565b61112333610ea8565b6111955760405162461bcd60e51b815260206004820152602d60248201527f4552433732313a2063616c6c6572206973206e6f7420746f6b656e206f776e6560448201527f72206f7220617070726f766564000000000000000000000000000000000000006064820152608401610ceb565b61119e81612446565b50565b600c8054610d9e90614437565b60006111b960085490565b821061122d5760405162461bcd60e51b815260206004820152602c60248201527f455243373231456e756d657261626c653a20676c6f62616c20696e646578206f60448201527f7574206f6620626f756e647300000000000000000000000000000000000000006064820152608401610ceb565b6008828154811061124057611240614567565b90600052602060002001549050919050565b600a546001600160a01b031633146112ac5760405162461bcd60e51b815260206004820152601860248201527f63616c6c6572206973206e6f7420746865206f776e65722e00000000000000006044820152606401610ceb565b80516110fb90601290602084019061376b565b60128054610d9e90614437565b6000818152600260205260408120546001600160a01b031680610b9b5760405162461bcd60e51b815260206004820152601860248201527f4552433732313a20696e76616c696420746f6b656e20494400000000000000006044820152606401610ceb565b61133a336114c1565b156113ad5760405162461bcd60e51b815260206004820152602a60248201527f53656e646572206861766520616c72656164792070757263686173656420746860448201527f69732065646974696f6e000000000000000000000000000000000000000000006064820152608401610ceb565b6010546001600160a01b0316156114065760405162461bcd60e51b815260206004820181905260248201527f4e617469766520545258207061796d656e74206e6f7420737570706f727465646044820152606401610ceb565b600f54341461147d5760405162461bcd60e51b815260206004820152602360248201527f496e636f72726563742066756e647320746f206275792074686973206564697460448201527f696f6e00000000000000000000000000000000000000000000000000000000006064820152608401610ceb565b600a546040516001600160a01b03909116903480156108fc02916000818181858888f193505050501580156114b6573d6000803e3d6000fd5b506114bf612501565b565b60006001600160a01b03821661153f5760405162461bcd60e51b815260206004820152602960248201527f4552433732313a2061646472657373207a65726f206973206e6f74206120766160448201527f6c6964206f776e657200000000000000000000000000000000000000000000006064820152608401610ceb565b506001600160a01b031660009081526003602052604090205490565b600a546001600160a01b031633146115b55760405162461bcd60e51b815260206004820152601860248201527f63616c6c6572206973206e6f7420746865206f776e65722e00000000000000006044820152606401610ceb565b6114bf61260e565b6060600f54600014806115d8575060006115d6336114c1565b115b806115ed5750600a546001600160a01b031633145b156115ff57600d8054610bb090614437565b5060408051602081019091526000815290565b61161b336114c1565b1561168e5760405162461bcd60e51b815260206004820152602a60248201527f53656e646572206861766520616c72656164792070757263686173656420746860448201527f69732065646974696f6e000000000000000000000000000000000000000000006064820152608401610ceb565b6010546001600160a01b03166116e65760405162461bcd60e51b815260206004820152601b60248201527f4552433230207061796d656e74206e6f7420737570706f7274656400000000006044820152606401610ceb565b600f546010546040517fdd62ed3e0000000000000000000000000000000000000000000000000000000081523360048201523060248201526001600160a01b039091169063dd62ed3e9060440160206040518083038186803b15801561174b57600080fd5b505afa15801561175f573d6000803e3d6000fd5b505050506040513d601f19601f820116820180604052508101906117839190613c15565b10156117d15760405162461bcd60e51b815260206004820152601b60248201527f4552433230207061796d656e74206e6f7420737570706f7274656400000000006044820152606401610ceb565b601054600a54600f546040517f23b872dd0000000000000000000000000000000000000000000000000000000081523360048201526001600160a01b03928316602482015260448101919091529116906323b872dd90606401602060405180830381600087803b15801561184457600080fd5b505af1158015611858573d6000803e3d6000fd5b505050506040513d601f19601f820116820180604052508101906114b69190613b70565b600b546001600160a01b031633146118fc5760405162461bcd60e51b815260206004820152602c60248201527f63757272656e74206f776e6572206d757374207365742063616c6c657220617360448201527f206e657874206f776e65722e00000000000000000000000000000000000000006064820152608401610ceb565b600b80547fffffffffffffffffffffffff0000000000000000000000000000000000000000908116909155600a80543392168217905560405181907f8be0079c531659141344cd1fd0a4f28419497f9722a3daafe3b4186f6b6457e090600090a3565b6119a86040518060e001604052806060815260200160608152602001606081526020016000815260200160006001600160a01b0316815260200160008152602001600081525090565b604080516020810190915260008152600f5415806119ce575060006119cc336114c1565b115b806119e35750600a546001600160a01b031633145b15611a7657600d80546119f590614437565b80601f0160208091040260200160405190810160405280929190818152602001828054611a2190614437565b8015611a6e5780601f10611a4357610100808354040283529160200191611a6e565b820191906000526020600020905b815481529060010190602001808311611a5157829003601f168201915b505050505090505b6040518060e00160405280600c8054611a8e90614437565b80601f0160208091040260200160405190810160405280929190818152602001828054611aba90614437565b8015611b075780601f10611adc57610100808354040283529160200191611b07565b820191906000526020600020905b815481529060010190602001808311611aea57829003601f168201915b50505050508152602001600e8054611b1e90614437565b80601f0160208091040260200160405190810160405280929190818152602001828054611b4a90614437565b8015611b975780601f10611b6c57610100808354040283529160200191611b97565b820191906000526020600020905b815481529060010190602001808311611b7a57829003601f168201915b505050918352505060208101839052600f5460408201526010546001600160a01b03166060820152601154608082015260a001611bd360085490565b905292915050565b606060018054610bb090614437565b6110fb338383612670565b611bff338361215f565b611c715760405162461bcd60e51b815260206004820152602d60248201527f4552433732313a2063616c6c6572206973206e6f7420746f6b656e206f776e6560448201527f72206f7220617070726f766564000000000000000000000000000000000000006064820152608401610ceb565b611c7d8484848461275d565b50505050565b336001600160a01b037f00000000000000000000000000000000000000000000000000000000000000001614611cfb5760405162461bcd60e51b815260206004820152601360248201527f756e617574686f72697a65642063616c6c6572000000000000000000000000006044820152606401610ceb565b80518051611d1191600c9160209091019061376b565b506020808201518051611d2892600e92019061376b565b5060408101518051611d4291600d9160209091019061376b565b506060810151600f556080810151601080547fffffffffffffffffffffffff0000000000000000000000000000000000000000166001600160a01b0390921691909117905560a08101516011556110fb826127e6565b6000818152600260205260409020546060906001600160a01b0316611e255760405162461bcd60e51b815260206004820152602360248201527f4552433732313a20717565727920666f72206e6f6e6578697374656e7420746f60448201527f6b656e00000000000000000000000000000000000000000000000000000000006064820152608401610ceb565b6000611f0b611ebd600c8054611e3a90614437565b80601f0160208091040260200160405190810160405280929190818152602001828054611e6690614437565b8015611eb35780601f10611e8857610100808354040283529160200191611eb3565b820191906000526020600020905b815481529060010190602001808311611e9657829003601f168201915b505050505061284a565b611ec685612ad1565b611ece612c03565b611ed787612c61565b600e611ee289612ad1565b604051602001611ef796959493929190613f07565b604051602081830303815290604052612c9f565b905080604051602001611f1e91906140c1565b604051602081830303815290604052915050919050565b600a546001600160a01b03163314611f8f5760405162461bcd60e51b815260206004820152601860248201527f63616c6c6572206973206e6f7420746865206f776e65722e00000000000000006044820152606401610ceb565b6001600160a01b038116611fe55760405162461bcd60e51b815260206004820152601f60248201527f4e657874206f776e657220697320746865207a65726f20616464726573732e006044820152606401610ceb565b600b80547fffffffffffffffffffffffff0000000000000000000000000000000000000000166001600160a01b0392909216919091179055565b60007fffffffff0000000000000000000000000000000000000000000000000000000082167f780e9d63000000000000000000000000000000000000000000000000000000001480610b9b5750610b9b82612df3565b6000818152600260205260409020546001600160a01b031661119e5760405162461bcd60e51b815260206004820152601860248201527f4552433732313a20696e76616c696420746f6b656e20494400000000000000006044820152606401610ceb565b600081815260046020526040902080547fffffffffffffffffffffffff0000000000000000000000000000000000000000166001600160a01b0384169081179091558190612126826112cc565b6001600160a01b03167f8c5be1e5ebec7d5bd14f71427d1e84f3dd0314c0f7b2291e5b200ac8c7c3b92560405160405180910390a45050565b60008061216b836112cc565b9050806001600160a01b0316846001600160a01b031614806121b257506001600160a01b0380821660009081526005602090815260408083209388168352929052205460ff165b806121d65750836001600160a01b03166121cb84610c33565b6001600160a01b0316145b949350505050565b826001600160a01b03166121f1826112cc565b6001600160a01b03161461226d5760405162461bcd60e51b815260206004820152602560248201527f4552433732313a207472616e736665722066726f6d20696e636f72726563742060448201527f6f776e65720000000000000000000000000000000000000000000000000000006064820152608401610ceb565b6001600160a01b0382166122e85760405162461bcd60e51b8152602060048201526024808201527f4552433732313a207472616e7366657220746f20746865207a65726f2061646460448201527f72657373000000000000000000000000000000000000000000000000000000006064820152608401610ceb565b6122f58383836001612ed6565b826001600160a01b0316612308826112cc565b6001600160a01b0316146123845760405162461bcd60e51b815260206004820152602560248201527f4552433732313a207472616e736665722066726f6d20696e636f72726563742060448201527f6f776e65720000000000000000000000000000000000000000000000000000006064820152608401610ceb565b600081815260046020908152604080832080547fffffffffffffffffffffffff00000000000000000000000000000000000000009081169091556001600160a01b0387811680865260038552838620805460001901905590871680865283862080546001019055868652600290945282852080549092168417909155905184937fddf252ad1be2c89b69c2b068fc378daa952ba7f163c4a11628f55a4df523b3ef91a4505050565b6110fb828260405180602001604052806000815250612ee2565b6000612451826112cc565b9050612461816000846001612ed6565b61246a826112cc565b600083815260046020908152604080832080547fffffffffffffffffffffffff00000000000000000000000000000000000000009081169091556001600160a01b0385168085526003845282852080546000190190558785526002909352818420805490911690555192935084927fddf252ad1be2c89b69c2b068fc378daa952ba7f163c4a11628f55a4df523b3ef908390a45050565b600061250c60145490565b905061251c601480546001019055565b612526338261242c565b6040517fa7d1e5820000000000000000000000000000000000000000000000000000000081523360048201527f00000000000000000000000000000000000000000000000000000000000000006001600160a01b03169063a7d1e58290602401600060405180830381600087803b1580156125a057600080fd5b505af11580156125b4573d6000803e3d6000fd5b5050600f546010546040805186815260208101939093526001600160a01b0390911682820152513393508392507f5428229ba5454a0da12c99a2223d19f988438680043e982e7b487b50b83d87ae9181900360600190a350565b600a546040516000916001600160a01b0316907f8be0079c531659141344cd1fd0a4f28419497f9722a3daafe3b4186f6b6457e0908390a3600a80547fffffffffffffffffffffffff0000000000000000000000000000000000000000169055565b816001600160a01b0316836001600160a01b031614156126d25760405162461bcd60e51b815260206004820152601960248201527f4552433732313a20617070726f766520746f2063616c6c6572000000000000006044820152606401610ceb565b6001600160a01b0383811660008181526005602090815260408083209487168084529482529182902080547fffffffffffffffffffffffffffffffffffffffffffffffffffffffffffffff001686151590811790915591519182527f17307eab39ab6107e8899845ad3d59bd9653f200f220920489ca2b5937696c31910160405180910390a3505050565b6127688484846121de565b61277484848484612f6b565b611c7d5760405162461bcd60e51b815260206004820152603260248201527f4552433732313a207472616e7366657220746f206e6f6e20455243373231526560448201527f63656976657220696d706c656d656e74657200000000000000000000000000006064820152608401610ceb565b600a80547fffffffffffffffffffffffff0000000000000000000000000000000000000000166001600160a01b0383169081179091556040516000907f8be0079c531659141344cd1fd0a4f28419497f9722a3daafe3b4186f6b6457e0908290a350565b6060816000805b82518160ff1610156128e157828160ff168151811061287257612872614567565b6020910101517fff00000000000000000000000000000000000000000000000000000000000000167f220000000000000000000000000000000000000000000000000000000000000014156128cf57816128cb816144a6565b9250505b806128d9816144a6565b915050612851565b5060ff811615612ac95760008160ff1683516128fd9190614233565b67ffffffffffffffff81111561291557612915614596565b6040519080825280601f01601f19166020018201604052801561293f576020820181803683370190505b5090506000805b84518160ff161015612abe57848160ff168151811061296757612967614567565b6020910101517fff00000000000000000000000000000000000000000000000000000000000000167f22000000000000000000000000000000000000000000000000000000000000001415612a24577f5c0000000000000000000000000000000000000000000000000000000000000083836129e28161448b565b9450815181106129f4576129f4614567565b60200101907effffffffffffffffffffffffffffffffffffffffffffffffffffffffffffff1916908160001a9053505b848160ff1681518110612a3957612a39614567565b01602001517fff00000000000000000000000000000000000000000000000000000000000000168383612a6b8161448b565b945081518110612a7d57612a7d614567565b60200101907effffffffffffffffffffffffffffffffffffffffffffffffffffffffffffff1916908160001a90535080612ab6816144a6565b915050612946565b509095945050505050565b509192915050565b606081612b1157505060408051808201909152600181527f3000000000000000000000000000000000000000000000000000000000000000602082015290565b8160005b8115612b3b5780612b258161448b565b9150612b349050600a83614270565b9150612b15565b60008167ffffffffffffffff811115612b5657612b56614596565b6040519080825280601f01601f191660200182016040528015612b80576020820181803683370190505b5090505b84156121d657612b956001836143d1565b9150612ba2600a866144c6565b612bad906030614233565b60f81b818381518110612bc257612bc2614567565b60200101907effffffffffffffffffffffffffffffffffffffffffffffffffffffffffffff1916908160001a905350612bfc600a86614270565b9450612b84565b600a54606090600c90612c1e906001600160a01b0316613136565b612c29600f54612ad1565b612c3a612c3560085490565b612ad1565b604051602001612c4d9493929190613e15565b604051602081830303815290604052905090565b60606012612c6e30613136565b612c7784612ad1565b604051602001612c8993929190613d65565b6040516020818303038152906040529050919050565b6060815160001415612cbf57505060408051602081019091526000815290565b60006040518060600160405280604081526020016146026040913990506000600384516002612cee9190614233565b612cf89190614270565b612d03906004614391565b67ffffffffffffffff811115612d1b57612d1b614596565b6040519080825280601f01601f191660200182016040528015612d45576020820181803683370190505b509050600182016020820185865187015b80821015612db1576003820191508151603f8160121c168501518453600184019350603f81600c1c168501518453600184019350603f8160061c168501518453600184019350603f8116850151845350600183019250612d56565b5050600386510660018114612dcd5760028114612de057612de8565b603d6001830353603d6002830353612de8565b603d60018303535b509195945050505050565b60007fffffffff0000000000000000000000000000000000000000000000000000000082167f80ac58cd000000000000000000000000000000000000000000000000000000001480612e8657507fffffffff0000000000000000000000000000000000000000000000000000000082167f5b5e139f00000000000000000000000000000000000000000000000000000000145b80610b9b57507f01ffc9a7000000000000000000000000000000000000000000000000000000007fffffffff00000000000000000000000000000000000000000000000000000000831614610b9b565b611c7d848484846132b8565b612eec83836133f4565b612ef96000848484612f6b565b610d8c5760405162461bcd60e51b815260206004820152603260248201527f4552433732313a207472616e7366657220746f206e6f6e20455243373231526560448201527f63656976657220696d706c656d656e74657200000000000000000000000000006064820152608401610ceb565b60006001600160a01b0384163b1561312b576040517f150b7a020000000000000000000000000000000000000000000000000000000081526001600160a01b0385169063150b7a0290612fc8903390899088908890600401614106565b602060405180830381600087803b158015612fe257600080fd5b505af1925050508015613030575060408051601f3d9081017fffffffffffffffffffffffffffffffffffffffffffffffffffffffffffffffe016820190925261302d91810190613baa565b60015b6130e0573d80801561305e576040519150601f19603f3d011682016040523d82523d6000602084013e613063565b606091505b5080516130d85760405162461bcd60e51b815260206004820152603260248201527f4552433732313a207472616e7366657220746f206e6f6e20455243373231526560448201527f63656976657220696d706c656d656e74657200000000000000000000000000006064820152608401610ceb565b805181602001fd5b7fffffffff00000000000000000000000000000000000000000000000000000000167f150b7a02000000000000000000000000000000000000000000000000000000001490506121d6565b506001949350505050565b60408051602880825260608281019093526000919060208201818036833701905050905060005b60148110156132a65760006131738260136143d1565b61317e906008614391565b6131899060026142e9565b61319c906001600160a01b038716614270565b60f81b9050600060108260f81c6131b39190614284565b60f81b905060008160f81c60106131ca91906143b0565b8360f81c6131d891906143e8565b60f81b90506131e6826135a5565b856131f2866002614391565b8151811061320257613202614567565b60200101907effffffffffffffffffffffffffffffffffffffffffffffffffffffffffffff1916908160001a90535061323a816135a5565b85613246866002614391565b613251906001614233565b8151811061326157613261614567565b60200101907effffffffffffffffffffffffffffffffffffffffffffffffffffffffffffff1916908160001a905350505050808061329e9061448b565b91505061315d565b5080604051602001611f1e9190613dd0565b600181111561332f5760405162461bcd60e51b815260206004820152603560248201527f455243373231456e756d657261626c653a20636f6e736563757469766520747260448201527f616e7366657273206e6f7420737570706f7274656400000000000000000000006064820152608401610ceb565b816001600160a01b03851661338b5761338681600880546000838152600960205260408120829055600182018355919091527ff3f7a9fe364faab93b216da50a3214154f22a0a2b415b23a84c8169e8b636ee30155565b6133ae565b836001600160a01b0316856001600160a01b0316146133ae576133ae85826135db565b6001600160a01b0384166133ca576133c581613678565b6133ed565b846001600160a01b0316846001600160a01b0316146133ed576133ed8482613727565b5050505050565b6001600160a01b03821661344a5760405162461bcd60e51b815260206004820181905260248201527f4552433732313a206d696e7420746f20746865207a65726f20616464726573736044820152606401610ceb565b6000818152600260205260409020546001600160a01b0316156134af5760405162461bcd60e51b815260206004820152601c60248201527f4552433732313a20746f6b656e20616c7265616479206d696e746564000000006044820152606401610ceb565b6134bd600083836001612ed6565b6000818152600260205260409020546001600160a01b0316156135225760405162461bcd60e51b815260206004820152601c60248201527f4552433732313a20746f6b656e20616c7265616479206d696e746564000000006044820152606401610ceb565b6001600160a01b038216600081815260036020908152604080832080546001019055848352600290915280822080547fffffffffffffffffffffffff0000000000000000000000000000000000000000168417905551839291907fddf252ad1be2c89b69c2b068fc378daa952ba7f163c4a11628f55a4df523b3ef908290a45050565b6000600a60f883901c10156135cc576135c360f883901c603061424b565b60f81b92915050565b6135c360f883901c605761424b565b600060016135e8846114c1565b6135f291906143d1565b600083815260076020526040902054909150808214613645576001600160a01b03841660009081526006602090815260408083208584528252808320548484528184208190558352600790915290208190555b5060009182526007602090815260408084208490556001600160a01b039094168352600681528383209183525290812055565b60085460009061368a906001906143d1565b600083815260096020526040812054600880549394509092849081106136b2576136b2614567565b9060005260206000200154905080600883815481106136d3576136d3614567565b600091825260208083209091019290925582815260099091526040808220849055858252812055600880548061370b5761370b614538565b6001900381819060005260206000200160009055905550505050565b6000613732836114c1565b6001600160a01b039093166000908152600660209081526040808320868452825280832085905593825260079052919091209190915550565b82805461377790614437565b90600052602060002090601f01602090048101928261379957600085556137df565b82601f106137b257805160ff19168380011785556137df565b828001600101855582156137df579182015b828111156137df5782518255916020019190600101906137c4565b506137eb9291506137ef565b5090565b5b808211156137eb57600081556001016137f0565b600067ffffffffffffffff8084111561381f5761381f614596565b604051601f85017fffffffffffffffffffffffffffffffffffffffffffffffffffffffffffffffe0908116603f0116810190828211818310171561386557613865614596565b8160405280935085815286868601111561387e57600080fd5b858560208301376000602087830101525050509392505050565b6000813574ffffffffffffffffffffffffffffffffffffffffff811681146138bf57600080fd5b6001600160a01b031692915050565b600082601f8301126138df57600080fd5b6138ee83833560208501613804565b9392505050565b60006020828403121561390757600080fd5b6138ee82613898565b6000806040838503121561392357600080fd5b61392c83613898565b915061393a60208401613898565b90509250929050565b60008060006060848603121561395857600080fd5b61396184613898565b925061396f60208501613898565b9150604084013590509250925092565b6000806000806080858703121561399557600080fd5b61399e85613898565b93506139ac60208601613898565b925060408501359150606085013567ffffffffffffffff8111156139cf57600080fd5b8501601f810187136139e057600080fd5b6139ef87823560208401613804565b91505092959194509250565b60008060408385031215613a0e57600080fd5b613a1783613898565b91506020830135613a27816145c5565b809150509250929050565b60008060408385031215613a4557600080fd5b613a4e83613898565b9150602083013567ffffffffffffffff80821115613a6b57600080fd5b9084019060e08287031215613a7f57600080fd5b613a8761420a565b823582811115613a9657600080fd5b613aa2888286016138ce565b825250602083013582811115613ab757600080fd5b613ac3888286016138ce565b602083015250604083013582811115613adb57600080fd5b613ae7888286016138ce565b60408301525060608301356060820152613b0360808401613898565b608082015260a083013560a082015260c083013560c08201528093505050509250929050565b60008060408385031215613b3c57600080fd5b613b4583613898565b946020939093013593505050565b600060208284031215613b6557600080fd5b81356138ee816145c5565b600060208284031215613b8257600080fd5b81516138ee816145c5565b600060208284031215613b9f57600080fd5b81356138ee816145d3565b600060208284031215613bbc57600080fd5b81516138ee816145d3565b600060208284031215613bd957600080fd5b813567ffffffffffffffff811115613bf057600080fd5b6121d6848285016138ce565b600060208284031215613c0e57600080fd5b5035919050565b600060208284031215613c2757600080fd5b5051919050565b60008151808452613c4681602086016020860161440b565b601f017fffffffffffffffffffffffffffffffffffffffffffffffffffffffffffffffe0169290920160200192915050565b60008151613c8a81856020860161440b565b9290920192915050565b8054600090600181811c9080831680613cae57607f831692505b6020808410821415613ce9577f4e487b7100000000000000000000000000000000000000000000000000000000600052602260045260246000fd5b818015613cfd5760018114613d2c57613d59565b7fffffffffffffffffffffffffffffffffffffffffffffffffffffffffffffff00861689528489019650613d59565b60008881526020902060005b86811015613d515781548b820152908501908301613d38565b505084890196505b50505050505092915050565b6000613d718286613c94565b7f2f000000000000000000000000000000000000000000000000000000000000008082528551613da8816001850160208a0161440b565b60019201918201528351613dc381600284016020880161440b565b0160020195945050505050565b7f3078000000000000000000000000000000000000000000000000000000000000815260008251613e0881600285016020870161440b565b9190910160020192915050565b7f45646974696f6e205469746c653a20000000000000000000000000000000000081526000613e47600f830187613c94565b7f2c2045646974696f6e204f776e65723a2000000000000000000000000000000081528551613e7d816011840160208a0161440b565b7f2c2045646974696f6e2050726963653a20000000000000000000000000000000601192909101918201528451613ebb81602284016020890161440b565b7f2c20546f74616c205075726368617365643a2000000000000000000000000000602292909101918201528351613ef981603584016020880161440b565b016035019695505050505050565b7f7b226e616d65223a202200000000000000000000000000000000000000000000815260008751613f3f81600a850160208c0161440b565b7f2000000000000000000000000000000000000000000000000000000000000000600a918401918201528751613f7c81600b840160208c0161440b565b7f222c20226465736372697074696f6e223a202200000000000000000000000000600b92909101918201528651613fba81601e840160208b0161440b565b7f222c202265787465726e616c5f75726c223a2000000000000000000000000000601e92909101918201528551613ff8816031840160208a0161440b565b7f222c2022696d616765223a20000000000000000000000000000000000000000060319290910191820152614030603d820186613c94565b90507f222c202261747472696275746573223a5b7b202274726169745f74797065223a81527f202245646974696f6e2053657269616c222c202276616c7565223a200000000060208201526140b461408b603c830186613c78565b7f7d5d207d00000000000000000000000000000000000000000000000000000000815260040190565b9998505050505050505050565b7f646174613a6170706c69636174696f6e2f6a736f6e3b6261736536342c0000008152600082516140f981601d85016020870161440b565b91909101601d0192915050565b60006001600160a01b038087168352808616602084015250836040830152608060608301526141386080830184613c2e565b9695505050505050565b6020815260006138ee6020830184613c2e565b602081526000825160e06020840152614172610100840182613c2e565b905060208401517fffffffffffffffffffffffffffffffffffffffffffffffffffffffffffffffe0808584030160408601526141ae8383613c2e565b92506040860151915080858403016060860152506141cc8282613c2e565b915050606084015160808401526001600160a01b0360808501511660a084015260a084015160c084015260c084015160e08401528091505092915050565b60405160e0810167ffffffffffffffff8111828210171561422d5761422d614596565b60405290565b60008219821115614246576142466144da565b500190565b600060ff821660ff84168060ff03821115614268576142686144da565b019392505050565b60008261427f5761427f614509565b500490565b600060ff83168061429757614297614509565b8060ff84160491505092915050565b600181815b808511156142e15781600019048211156142c7576142c76144da565b808516156142d457918102915b93841c93908002906142ab565b509250929050565b60006138ee83836000826142ff57506001610b9b565b8161430c57506000610b9b565b8160018114614322576002811461432c57614348565b6001915050610b9b565b60ff84111561433d5761433d6144da565b50506001821b610b9b565b5060208310610133831016604e8410600b841016171561436b575081810a610b9b565b61437583836142a6565b8060001904821115614389576143896144da565b029392505050565b60008160001904831182151516156143ab576143ab6144da565b500290565b600060ff821660ff84168160ff0481118215151615614389576143896144da565b6000828210156143e3576143e36144da565b500390565b600060ff821660ff841680821015614402576144026144da565b90039392505050565b60005b8381101561442657818101518382015260200161440e565b83811115611c7d5750506000910152565b600181811c9082168061444b57607f821691505b60208210811415614485577f4e487b7100000000000000000000000000000000000000000000000000000000600052602260045260246000fd5b50919050565b600060001982141561449f5761449f6144da565b5060010190565b600060ff821660ff8114156144bd576144bd6144da565b60010192915050565b6000826144d5576144d5614509565b500690565b7f4e487b7100000000000000000000000000000000000000000000000000000000600052601160045260246000fd5b7f4e487b7100000000000000000000000000000000000000000000000000000000600052601260045260246000fd5b7f4e487b7100000000000000000000000000000000000000000000000000000000600052603160045260246000fd5b7f4e487b7100000000000000000000000000000000000000000000000000000000600052603260045260246000fd5b7f4e487b7100000000000000000000000000000000000000000000000000000000600052604160045260246000fd5b801515811461119e57600080fd5b7fffffffff000000000000000000000000000000000000000000000000000000008116811461119e57600080fdfe4142434445464748494a4b4c4d4e4f505152535455565758595a6162636465666768696a6b6c6d6e6f707172737475767778797a303132333435363738392b2fa26474726f6e58221220c0e08a4331bb39eb1d333fd334545e2b61712bcaa40475ce2b26c6e040792e4d64736f6c63430008060033",
  "source": "// SPDX-License-Identifier: MIT\npragma solidity ^0.8.0;\n\nimport \"./ThoughtEdition.sol\";\nimport \"./IThoughtEdition.sol\";\nimport \"./IThoughtEditionFactory.sol\";\nimport \"../standard/Clones.sol\";\nimport \"../standard/Ownable.sol\";\n\ncontract ThoughtEditionFactory is Ownable, IThoughtEditionFactory {\n    address public implementation;\n    string private editionBaseURI;\n\n    // Mapping to store the editions published by each author\n    mapping(address => address[]) public authorToEditions;\n\n    // Mapping to check an edition exists\n    mapping(address => bool) public editionExists;\n\n    // Mapping to store buyers of editions\n    mapping(address => address[]) public buyerToEditions;\n\n    // Mapping to track used salts\n    mapping(bytes32 => bool) public salts;\n\n    // Mapping to authors with their unique usernames\n    mapping(string => IThoughtEditionFactory.AuthorDetails) public authors;\n\n    // Mapping to author's address with their unique usernames\n    mapping(address => string) public authorAddressToUserName;\n\n    constructor(string memory _editionBaseURI) Ownable(msg.sender) {\n        editionBaseURI = _editionBaseURI;\n        // Set implementation contract.\n        implementation = address(new ThoughtEdition(address(this), _editionBaseURI));\n    }\n\n    /// @notice Deploy a new writing edition clone with the sender as the owner.\n    function createEdition(string memory title, string memory imageURI, string memory contentURI, uint256 price, address paymentERC20Addr) override external returns (address clone) {\n        IThoughtEdition.ThoughtEdition memory edition = IThoughtEdition.ThoughtEdition({\n                                                            title: title,\n                                                            imageURI: imageURI,\n                                                            contentURI: contentURI,\n                                                            price: price, \n                                                            paymentERC20Addr: paymentERC20Addr,\n                                                            createdAt: block.timestamp,\n                                                            totalPurchased: 0\n                                                        });\n        clone = deployCloneAndInitialize(msg.sender, edition);\n        editionExists[clone] = true;\n    }\n\n    // Function to create a new blog\n    function deployCloneAndInitialize(address owner, IThoughtEdition.ThoughtEdition memory edition) internal returns (address clone) {\n        // Generate a unique salt for deterministic deployment\n        bytes32 salt = keccak256(abi.encodePacked(owner, edition.title, edition.createdAt, edition.contentURI));\n\n        // Check if the salt has already been used\n        require(!salts[salt], \"Edition with the same salt already exists\");\n\n        // Mark the salt as used\n        salts[salt] = true;\n\n        // Use Clones.cloneDeterministic to create a new TaleEdition clone\n        clone = Clones.cloneDeterministic(implementation, salt);\n\n        // Initialize the blog with the provided parameters\n        ThoughtEdition(clone).initialize(owner, edition);\n\n        // Store the address of the created blog for the author\n        authorToEditions[msg.sender].push(clone);\n\n        emit CloneDeployed(msg.sender, owner, clone);\n\n        return clone;\n    }\n\n    // Function to get the number of editions published by an author\n    function getAuthorEditionsCount(address author) override external view returns (uint256) {\n        return authorToEditions[author].length;\n    }\n\n    // Function to get the address of a specific edition published by an author\n    function getAuthorEdition(address author, uint256 index) override external view returns (address) {\n        require(index < authorToEditions[author].length, \"Index out of range\");\n        return authorToEditions[author][index];\n    }\n\n    // Function to get the addresses of editions published by an author\n    function getAuthorEditions(address author) override external view returns (address[] memory) {\n        return authorToEditions[author];\n    }\n\n    // Function to check if a username is available\n    function isUsernameAvailable(string memory userName) public view returns (bool) {\n        return authors[userName].walletAddress == address(0);\n    }\n\n    // Function to fetch author details from userName\n    function getAuthorDetails(string memory userName) public view returns (IThoughtEditionFactory.AuthorDetails memory) {\n        return authors[userName];\n    }\n\n    // Function to fetch author details \n    function getAuthorDetailsByAddress() public view returns (IThoughtEditionFactory.AuthorDetails memory) {\n        return authors[authorAddressToUserName[msg.sender]];\n    }\n\n    // Function to fetch author userName \n    function getAuthorUserName() public view returns (string memory) {\n        return authorAddressToUserName[msg.sender];\n    }\n\n    // Function to register author\n    function registerAuthor(string memory userName, string memory name, string memory description) public {\n       require(isUsernameAvailable(userName), \"Username is already taken\");\n        \n        IThoughtEditionFactory.AuthorDetails memory author = IThoughtEditionFactory.AuthorDetails({\n            userName: userName,\n            name: name,\n            walletAddress: msg.sender,\n            description: description\n        });\n\n        authors[userName] = author;\n        authorAddressToUserName[msg.sender] = userName;\n        emit AuthorRegistered(userName, msg.sender, name);\n    }\n\n    // Funtion to register claim\n    function registerClaim(address buyer) override external {\n        require(editionExists[msg.sender],\"This function can olny be called by edition contracts\");\n        buyerToEditions[buyer].push(msg.sender);\n    }\n\n    // Function to get claimed edtions\n    function getClaimedEditions(address buyer) override external view returns (address[] memory) {\n        return buyerToEditions[buyer];\n    }\n\n    // Function to blacklist an edition\n    function setBlacklisted(address edition, bool val) override external onlyOwner { \n        IThoughtEdition editionContract = IThoughtEdition(edition);\n        editionContract.setBlacklisted(val);\n    }\n}",
  "sourcePath": "/Users/a0p0bhv/Desktop/thuoghts/thoughts-smart-contracts/contracts/writing-editions/ThoughtEditionFactory.sol",
  "compiler": {
    "name": "solc",
    "version": "0.8.6+commit.0e36fba0.mod.Emscripten.clang"
  },
  "schemaVersion": "2.0.1",
  "updatedAt": "2023-11-29T09:08:49.099Z"
}