{
  "contractName": "ThoughtEdition",
  "abi": [
    {
      "inputs": [
        {
          "internalType": "address",
          "name": "_factory",
          "type": "address"
        },
        {
          "internalType": "string",
          "name": "_baseMetadataURI",
          "type": "string"
        }
      ],
      "stateMutability": "nonpayable",
      "type": "constructor"
    },
    {
      "anonymous": false,
      "inputs": [
        {
          "indexed": true,
          "internalType": "address",
          "name": "owner",
          "type": "address"
        },
        {
          "indexed": true,
          "internalType": "address",
          "name": "approved",
          "type": "address"
        },
        {
          "indexed": true,
          "internalType": "uint256",
          "name": "tokenId",
          "type": "uint256"
        }
      ],
      "name": "Approval",
      "type": "event"
    },
    {
      "anonymous": false,
      "inputs": [
        {
          "indexed": true,
          "internalType": "address",
          "name": "owner",
          "type": "address"
        },
        {
          "indexed": true,
          "internalType": "address",
          "name": "operator",
          "type": "address"
        },
        {
          "indexed": false,
          "internalType": "bool",
          "name": "approved",
          "type": "bool"
        }
      ],
      "name": "ApprovalForAll",
      "type": "event"
    },
    {
      "anonymous": false,
      "inputs": [
        {
          "indexed": true,
          "internalType": "address",
          "name": "previousOwner",
          "type": "address"
        },
        {
          "indexed": true,
          "internalType": "address",
          "name": "newOwner",
          "type": "address"
        }
      ],
      "name": "OwnershipTransferred",
      "type": "event"
    },
    {
      "anonymous": false,
      "inputs": [
        {
          "indexed": true,
          "internalType": "address",
          "name": "clone",
          "type": "address"
        },
        {
          "indexed": false,
          "internalType": "uint256",
          "name": "tokenId",
          "type": "uint256"
        },
        {
          "indexed": true,
          "internalType": "address",
          "name": "recipient",
          "type": "address"
        },
        {
          "indexed": false,
          "internalType": "uint256",
          "name": "price",
          "type": "uint256"
        },
        {
          "indexed": false,
          "internalType": "address",
          "name": "paymentERC20Addr",
          "type": "address"
        }
      ],
      "name": "ThoughtEditionPurchased",
      "type": "event"
    },
    {
      "anonymous": false,
      "inputs": [
        {
          "indexed": true,
          "internalType": "address",
          "name": "from",
          "type": "address"
        },
        {
          "indexed": true,
          "internalType": "address",
          "name": "to",
          "type": "address"
        },
        {
          "indexed": true,
          "internalType": "uint256",
          "name": "tokenId",
          "type": "uint256"
        }
      ],
      "name": "Transfer",
      "type": "event"
    },
    {
      "inputs": [],
      "name": "acceptOwnership",
      "outputs": [],
      "stateMutability": "nonpayable",
      "type": "function"
    },
    {
      "inputs": [
        {
          "internalType": "address",
          "name": "to",
          "type": "address"
        },
        {
          "internalType": "uint256",
          "name": "tokenId",
          "type": "uint256"
        }
      ],
      "name": "approve",
      "outputs": [],
      "stateMutability": "nonpayable",
      "type": "function"
    },
    {
      "inputs": [
        {
          "internalType": "address",
          "name": "owner",
          "type": "address"
        }
      ],
      "name": "balanceOf",
      "outputs": [
        {
          "internalType": "uint256",
          "name": "",
          "type": "uint256"
        }
      ],
      "stateMutability": "view",
      "type": "function"
    },
    {
      "inputs": [],
      "name": "baseMetadataURI",
      "outputs": [
        {
          "internalType": "string",
          "name": "",
          "type": "string"
        }
      ],
      "stateMutability": "view",
      "type": "function"
    },
    {
      "inputs": [
        {
          "internalType": "uint256",
          "name": "tokenId",
          "type": "uint256"
        }
      ],
      "name": "burn",
      "outputs": [],
      "stateMutability": "nonpayable",
      "type": "function"
    },
    {
      "inputs": [],
      "name": "cancelOwnershipTransfer",
      "outputs": [],
      "stateMutability": "nonpayable",
      "type": "function"
    },
    {
      "inputs": [],
      "name": "createdAt",
      "outputs": [
        {
          "internalType": "uint256",
          "name": "",
          "type": "uint256"
        }
      ],
      "stateMutability": "view",
      "type": "function"
    },
    {
      "inputs": [],
      "name": "factory",
      "outputs": [
        {
          "internalType": "address",
          "name": "",
          "type": "address"
        }
      ],
      "stateMutability": "view",
      "type": "function"
    },
    {
      "inputs": [
        {
          "internalType": "uint256",
          "name": "tokenId",
          "type": "uint256"
        }
      ],
      "name": "getApproved",
      "outputs": [
        {
          "internalType": "address",
          "name": "",
          "type": "address"
        }
      ],
      "stateMutability": "view",
      "type": "function"
    },
    {
      "inputs": [],
      "name": "getContentURI",
      "outputs": [
        {
          "internalType": "string",
          "name": "",
          "type": "string"
        }
      ],
      "stateMutability": "view",
      "type": "function"
    },
    {
      "inputs": [],
      "name": "getEdition",
      "outputs": [
        {
          "components": [
            {
              "internalType": "string",
              "name": "title",
              "type": "string"
            },
            {
              "internalType": "string",
              "name": "imageURI",
              "type": "string"
            },
            {
              "internalType": "string",
              "name": "contentURI",
              "type": "string"
            },
            {
              "internalType": "uint256",
              "name": "price",
              "type": "uint256"
            },
            {
              "internalType": "address",
              "name": "paymentERC20Addr",
              "type": "address"
            },
            {
              "internalType": "uint256",
              "name": "createdAt",
              "type": "uint256"
            },
            {
              "internalType": "uint256",
              "name": "totalPurchased",
              "type": "uint256"
            }
          ],
          "internalType": "struct IThoughtEdition.ThoughtEdition",
          "name": "",
          "type": "tuple"
        }
      ],
      "stateMutability": "view",
      "type": "function"
    },
    {
      "inputs": [],
      "name": "imageURI",
      "outputs": [
        {
          "internalType": "string",
          "name": "",
          "type": "string"
        }
      ],
      "stateMutability": "view",
      "type": "function"
    },
    {
      "inputs": [
        {
          "internalType": "address",
          "name": "_owner",
          "type": "address"
        },
        {
          "components": [
            {
              "internalType": "string",
              "name": "title",
              "type": "string"
            },
            {
              "internalType": "string",
              "name": "imageURI",
              "type": "string"
            },
            {
              "internalType": "string",
              "name": "contentURI",
              "type": "string"
            },
            {
              "internalType": "uint256",
              "name": "price",
              "type": "uint256"
            },
            {
              "internalType": "address",
              "name": "paymentERC20Addr",
              "type": "address"
            },
            {
              "internalType": "uint256",
              "name": "createdAt",
              "type": "uint256"
            },
            {
              "internalType": "uint256",
              "name": "totalPurchased",
              "type": "uint256"
            }
          ],
          "internalType": "struct IThoughtEdition.ThoughtEdition",
          "name": "edition",
          "type": "tuple"
        }
      ],
      "name": "initialize",
      "outputs": [],
      "stateMutability": "nonpayable",
      "type": "function"
    },
    {
      "inputs": [
        {
          "internalType": "address",
          "name": "owner",
          "type": "address"
        },
        {
          "internalType": "address",
          "name": "operator",
          "type": "address"
        }
      ],
      "name": "isApprovedForAll",
      "outputs": [
        {
          "internalType": "bool",
          "name": "",
          "type": "bool"
        }
      ],
      "stateMutability": "view",
      "type": "function"
    },
    {
      "inputs": [],
      "name": "isBlacklisted",
      "outputs": [
        {
          "internalType": "bool",
          "name": "",
          "type": "bool"
        }
      ],
      "stateMutability": "view",
      "type": "function"
    },
    {
      "inputs": [],
      "name": "isNextOwner",
      "outputs": [
        {
          "internalType": "bool",
          "name": "",
          "type": "bool"
        }
      ],
      "stateMutability": "view",
      "type": "function"
    },
    {
      "inputs": [],
      "name": "isOwner",
      "outputs": [
        {
          "internalType": "bool",
          "name": "",
          "type": "bool"
        }
      ],
      "stateMutability": "view",
      "type": "function"
    },
    {
      "inputs": [],
      "name": "name",
      "outputs": [
        {
          "internalType": "string",
          "name": "",
          "type": "string"
        }
      ],
      "stateMutability": "view",
      "type": "function"
    },
    {
      "inputs": [],
      "name": "owner",
      "outputs": [
        {
          "internalType": "address",
          "name": "",
          "type": "address"
        }
      ],
      "stateMutability": "view",
      "type": "function"
    },
    {
      "inputs": [
        {
          "internalType": "uint256",
          "name": "tokenId",
          "type": "uint256"
        }
      ],
      "name": "ownerOf",
      "outputs": [
        {
          "internalType": "address",
          "name": "",
          "type": "address"
        }
      ],
      "stateMutability": "view",
      "type": "function"
    },
    {
      "inputs": [],
      "name": "paymentERC20Addr",
      "outputs": [
        {
          "internalType": "address",
          "name": "",
          "type": "address"
        }
      ],
      "stateMutability": "view",
      "type": "function"
    },
    {
      "inputs": [],
      "name": "price",
      "outputs": [
        {
          "internalType": "uint256",
          "name": "",
          "type": "uint256"
        }
      ],
      "stateMutability": "view",
      "type": "function"
    },
    {
      "inputs": [],
      "name": "purchase",
      "outputs": [],
      "stateMutability": "payable",
      "type": "function"
    },
    {
      "inputs": [],
      "name": "purchaseERC20",
      "outputs": [],
      "stateMutability": "nonpayable",
      "type": "function"
    },
    {
      "inputs": [],
      "name": "renounceOwnership",
      "outputs": [],
      "stateMutability": "nonpayable",
      "type": "function"
    },
    {
      "inputs": [
        {
          "internalType": "address",
          "name": "to",
          "type": "address"
        }
      ],
      "name": "safeMint",
      "outputs": [],
      "stateMutability": "nonpayable",
      "type": "function"
    },
    {
      "inputs": [
        {
          "internalType": "address",
          "name": "from",
          "type": "address"
        },
        {
          "internalType": "address",
          "name": "to",
          "type": "address"
        },
        {
          "internalType": "uint256",
          "name": "tokenId",
          "type": "uint256"
        }
      ],
      "name": "safeTransferFrom",
      "outputs": [],
      "stateMutability": "nonpayable",
      "type": "function"
    },
    {
      "inputs": [
        {
          "internalType": "address",
          "name": "from",
          "type": "address"
        },
        {
          "internalType": "address",
          "name": "to",
          "type": "address"
        },
        {
          "internalType": "uint256",
          "name": "tokenId",
          "type": "uint256"
        },
        {
          "internalType": "bytes",
          "name": "data",
          "type": "bytes"
        }
      ],
      "name": "safeTransferFrom",
      "outputs": [],
      "stateMutability": "nonpayable",
      "type": "function"
    },
    {
      "inputs": [
        {
          "internalType": "address",
          "name": "operator",
          "type": "address"
        },
        {
          "internalType": "bool",
          "name": "approved",
          "type": "bool"
        }
      ],
      "name": "setApprovalForAll",
      "outputs": [],
      "stateMutability": "nonpayable",
      "type": "function"
    },
    {
      "inputs": [
        {
          "internalType": "string",
          "name": "uri",
          "type": "string"
        }
      ],
      "name": "setBaseURI",
      "outputs": [],
      "stateMutability": "nonpayable",
      "type": "function"
    },
    {
      "inputs": [
        {
          "internalType": "bool",
          "name": "val",
          "type": "bool"
        }
      ],
      "name": "setBlacklisted",
      "outputs": [],
      "stateMutability": "nonpayable",
      "type": "function"
    },
    {
      "inputs": [
        {
          "internalType": "bytes4",
          "name": "interfaceId",
          "type": "bytes4"
        }
      ],
      "name": "supportsInterface",
      "outputs": [
        {
          "internalType": "bool",
          "name": "",
          "type": "bool"
        }
      ],
      "stateMutability": "view",
      "type": "function"
    },
    {
      "inputs": [],
      "name": "symbol",
      "outputs": [
        {
          "internalType": "string",
          "name": "",
          "type": "string"
        }
      ],
      "stateMutability": "view",
      "type": "function"
    },
    {
      "inputs": [],
      "name": "title",
      "outputs": [
        {
          "internalType": "string",
          "name": "",
          "type": "string"
        }
      ],
      "stateMutability": "view",
      "type": "function"
    },
    {
      "inputs": [
        {
          "internalType": "uint256",
          "name": "index",
          "type": "uint256"
        }
      ],
      "name": "tokenByIndex",
      "outputs": [
        {
          "internalType": "uint256",
          "name": "",
          "type": "uint256"
        }
      ],
      "stateMutability": "view",
      "type": "function"
    },
    {
      "inputs": [
        {
          "internalType": "address",
          "name": "owner",
          "type": "address"
        },
        {
          "internalType": "uint256",
          "name": "index",
          "type": "uint256"
        }
      ],
      "name": "tokenOfOwnerByIndex",
      "outputs": [
        {
          "internalType": "uint256",
          "name": "",
          "type": "uint256"
        }
      ],
      "stateMutability": "view",
      "type": "function"
    },
    {
      "inputs": [
        {
          "internalType": "uint256",
          "name": "tokenId",
          "type": "uint256"
        }
      ],
      "name": "tokenURI",
      "outputs": [
        {
          "internalType": "string",
          "name": "",
          "type": "string"
        }
      ],
      "stateMutability": "view",
      "type": "function"
    },
    {
      "inputs": [],
      "name": "totalSupply",
      "outputs": [
        {
          "internalType": "uint256",
          "name": "",
          "type": "uint256"
        }
      ],
      "stateMutability": "view",
      "type": "function"
    },
    {
      "inputs": [
        {
          "internalType": "address",
          "name": "from",
          "type": "address"
        },
        {
          "internalType": "address",
          "name": "to",
          "type": "address"
        },
        {
          "internalType": "uint256",
          "name": "tokenId",
          "type": "uint256"
        }
      ],
      "name": "transferFrom",
      "outputs": [],
      "stateMutability": "nonpayable",
      "type": "function"
    },
    {
      "inputs": [
        {
          "internalType": "address",
          "name": "nextOwner_",
          "type": "address"
        }
      ],
      "name": "transferOwnership",
      "outputs": [],
      "stateMutability": "nonpayable",
      "type": "function"
    }
  ],
  "bytecode": "0x60a06040523480156200001157600080fd5b50d380156200001f57600080fd5b50d280156200002d57600080fd5b5060405162004a4638038062004a4683398101604081905262000050916200023d565b604080518082018252600e81526d2a3437bab3b43a22b234ba34b7b760911b60208083019182528351808501909452600384526215121560ea1b90840152815160009391620000a29185919062000197565b508051620000b890600190602084019062000197565b505050620000cc816200014b60201b60201c565b506001600160a01b0382166200011b5760405162461bcd60e51b815260206004820152601060248201526f6d7573742073657420666163746f727960801b604482015260640160405180910390fd5b6001600160601b0319606083901b1660805280516200014290601290602084019062000197565b5050506200039b565b600a80546001600160a01b0319166001600160a01b0383169081179091556040516000907f8be0079c531659141344cd1fd0a4f28419497f9722a3daafe3b4186f6b6457e0908290a350565b828054620001a59062000348565b90600052602060002090601f016020900481019282620001c9576000855562000214565b82601f10620001e457805160ff191683800117855562000214565b8280016001018555821562000214579182015b8281111562000214578251825591602001919060010190620001f7565b506200022292915062000226565b5090565b5b8082111562000222576000815560010162000227565b600080604083850312156200025157600080fd5b82516001600160a81b03811681146200026957600080fd5b6020848101516001600160a01b03929092169350906001600160401b03808211156200029457600080fd5b818601915086601f830112620002a957600080fd5b815181811115620002be57620002be62000385565b604051601f8201601f19908116603f01168101908382118183101715620002e957620002e962000385565b8160405282815289868487010111156200030257600080fd5b600093505b8284101562000326578484018601518185018701529285019262000307565b82841115620003385760008684830101525b8096505050505050509250929050565b600181811c908216806200035d57607f821691505b602082108114156200037f57634e487b7160e01b600052602260045260246000fd5b50919050565b634e487b7160e01b600052604160045260246000fd5b60805160601c614677620003cf60003960008181610a2d01528181610fde01528181611c8e015261255401526146776000f3fe6080604052600436106102bb5760003560e01c8063715018a61161016e578063a94d8811116100cb578063c87b56dd1161007f578063e985e9c511610064578063e985e9c514610ab9578063ed459df214610b1c578063f2fde38b14610b5657600080fd5b8063c87b56dd14610a4f578063cf09e0d014610a8957600080fd5b8063b88d4fde116100b0578063b88d4fde1461098d578063bca79e9a146109c7578063c45a015514610a0157600080fd5b8063a94d88111461091f578063a98adf7f1461095357600080fd5b80638da5cb5b1161012257806395d89b411161010757806395d89b4114610886578063a035b1fe146108b5578063a22cb465146108e557600080fd5b80638da5cb5b146108125780638f32d59b1461084c57600080fd5b80637817ef3e116101535780637817ef3e1461077857806379ba5097146107a757806388ac8284146107d657600080fd5b8063715018a61461071a57806377b46d4d1461074957600080fd5b806340d097c31161021c57806355f804b3116101d05780636352211e116101b55780636352211e1461069e57806364edfbf0146106d857806370a08231146106e057600080fd5b806355f804b3146106355780635b2bd79e1461066f57600080fd5b806342966c681161020157806342966c68146105925780634a79d50c146105cc5780634f6ccce7146105fb57600080fd5b806340d097c31461051e57806342842e0e1461055857600080fd5b806318160ddd1161027357806323b872dd1161025857806323b872dd146104705780632f745c59146104aa57806336efbc83146104e457600080fd5b806318160ddd1461040857806323452b9c1461044157600080fd5b8063081812fc116102a4578063081812fc1461034b578063095ea7b31461039d578063135d088d146103d957600080fd5b806301ffc9a7146102c057806306fdde031461030f575b600080fd5b3480156102cc57600080fd5b50d380156102d957600080fd5b50d280156102e657600080fd5b506102fa6102f5366004613b8d565b610b90565b60405190151581526020015b60405180910390f35b34801561031b57600080fd5b50d3801561032857600080fd5b50d2801561033557600080fd5b5061033e610ba1565b6040516103069190614142565b34801561035757600080fd5b50d3801561036457600080fd5b50d2801561037157600080fd5b50610385610380366004613bfc565b610c33565b6040516001600160a01b039091168152602001610306565b3480156103a957600080fd5b50d380156103b657600080fd5b50d280156103c357600080fd5b506103d76103d2366004613b29565b610c5a565b005b3480156103e557600080fd5b50d380156103f257600080fd5b50d280156103ff57600080fd5b5061033e610d91565b34801561041457600080fd5b50d3801561042157600080fd5b50d2801561042e57600080fd5b506008545b604051908152602001610306565b34801561044d57600080fd5b50d3801561045a57600080fd5b50d2801561046757600080fd5b506103d7610e1f565b34801561047c57600080fd5b50d3801561048957600080fd5b50d2801561049657600080fd5b506103d76104a5366004613943565b610ea3565b3480156104b657600080fd5b50d380156104c357600080fd5b50d280156104d057600080fd5b506104336104df366004613b29565b610f2b565b3480156104f057600080fd5b50d380156104fd57600080fd5b50d2801561050a57600080fd5b506103d7610519366004613b53565b610fd3565b34801561052a57600080fd5b50d3801561053757600080fd5b50d2801561054457600080fd5b506103d76105533660046138f5565b61107c565b34801561056457600080fd5b50d3801561057157600080fd5b50d2801561057e57600080fd5b506103d761058d366004613943565b6110ff565b34801561059e57600080fd5b50d380156105ab57600080fd5b50d280156105b857600080fd5b506103d76105c7366004613bfc565b61111a565b3480156105d857600080fd5b50d380156105e557600080fd5b50d280156105f257600080fd5b5061033e6111a1565b34801561060757600080fd5b50d3801561061457600080fd5b50d2801561062157600080fd5b50610433610630366004613bfc565b6111ae565b34801561064157600080fd5b50d3801561064e57600080fd5b50d2801561065b57600080fd5b506103d761066a366004613bc7565b611252565b34801561067b57600080fd5b50d3801561068857600080fd5b50d2801561069557600080fd5b5061033e6112bf565b3480156106aa57600080fd5b50d380156106b757600080fd5b50d280156106c457600080fd5b506103856106d3366004613bfc565b6112cc565b6103d7611331565b3480156106ec57600080fd5b50d380156106f957600080fd5b50d2801561070657600080fd5b506104336107153660046138f5565b6114c1565b34801561072657600080fd5b50d3801561073357600080fd5b50d2801561074057600080fd5b506103d761155b565b34801561075557600080fd5b50d3801561076257600080fd5b50d2801561076f57600080fd5b5061033e6115bd565b34801561078457600080fd5b50d3801561079157600080fd5b50d2801561079e57600080fd5b506103d7611612565b3480156107b357600080fd5b50d380156107c057600080fd5b50d280156107cd57600080fd5b506103d761187c565b3480156107e257600080fd5b50d380156107ef57600080fd5b50d280156107fc57600080fd5b5061080561195f565b6040516103069190614155565b34801561081e57600080fd5b50d3801561082b57600080fd5b50d2801561083857600080fd5b50600a54610385906001600160a01b031681565b34801561085857600080fd5b50d3801561086557600080fd5b50d2801561087257600080fd5b50600a546001600160a01b031633146102fa565b34801561089257600080fd5b50d3801561089f57600080fd5b50d280156108ac57600080fd5b5061033e611bdb565b3480156108c157600080fd5b50d380156108ce57600080fd5b50d280156108db57600080fd5b50610433600f5481565b3480156108f157600080fd5b50d380156108fe57600080fd5b50d2801561090b57600080fd5b506103d761091a3660046139fb565b611bea565b34801561092b57600080fd5b50d3801561093857600080fd5b50d2801561094557600080fd5b506013546102fa9060ff1681565b34801561095f57600080fd5b50d3801561096c57600080fd5b50d2801561097957600080fd5b50601054610385906001600160a01b031681565b34801561099957600080fd5b50d380156109a657600080fd5b50d280156109b357600080fd5b506103d76109c236600461397f565b611bf5565b3480156109d357600080fd5b50d380156109e057600080fd5b50d280156109ed57600080fd5b506103d76109fc366004613a32565b611c83565b348015610a0d57600080fd5b50d38015610a1a57600080fd5b50d28015610a2757600080fd5b506103857f000000000000000000000000000000000000000000000000000000000000000081565b348015610a5b57600080fd5b50d38015610a6857600080fd5b50d28015610a7557600080fd5b5061033e610a84366004613bfc565b611d98565b348015610a9557600080fd5b50d38015610aa257600080fd5b50d28015610aaf57600080fd5b5061043360115481565b348015610ac557600080fd5b50d38015610ad257600080fd5b50d28015610adf57600080fd5b506102fa610aee366004613910565b6001600160a01b03918216600090815260056020908152604080832093909416825291909152205460ff1690565b348015610b2857600080fd5b50d38015610b3557600080fd5b50d28015610b4257600080fd5b50600b546001600160a01b031633146102fa565b348015610b6257600080fd5b50d38015610b6f57600080fd5b50d28015610b7c57600080fd5b506103d7610b8b3660046138f5565b611f35565b6000610b9b8261201f565b92915050565b606060008054610bb090614437565b80601f0160208091040260200160405190810160405280929190818152602001828054610bdc90614437565b8015610c295780601f10610bfe57610100808354040283529160200191610c29565b820191906000526020600020905b815481529060010190602001808311610c0c57829003601f168201915b5050505050905090565b6000610c3e82612075565b506000908152600460205260409020546001600160a01b031690565b6000610c65826112cc565b9050806001600160a01b0316836001600160a01b03161415610cf45760405162461bcd60e51b815260206004820152602160248201527f4552433732313a20617070726f76616c20746f2063757272656e74206f776e6560448201527f720000000000000000000000000000000000000000000000000000000000000060648201526084015b60405180910390fd5b336001600160a01b0382161480610d105750610d108133610aee565b610d825760405162461bcd60e51b815260206004820152603d60248201527f4552433732313a20617070726f76652063616c6c6572206973206e6f7420746f60448201527f6b656e206f776e6572206f7220617070726f76656420666f7220616c6c0000006064820152608401610ceb565b610d8c83836120d9565b505050565b600e8054610d9e90614437565b80601f0160208091040260200160405190810160405280929190818152602001828054610dca90614437565b8015610e175780601f10610dec57610100808354040283529160200191610e17565b820191906000526020600020905b815481529060010190602001808311610dfa57829003601f168201915b505050505081565b600a546001600160a01b03163314610e795760405162461bcd60e51b815260206004820152601860248201527f63616c6c6572206973206e6f7420746865206f776e65722e00000000000000006044820152606401610ceb565b600b80547fffffffffffffffffffffffff0000000000000000000000000000000000000000169055565b610eae335b8261215f565b610f205760405162461bcd60e51b815260206004820152602d60248201527f4552433732313a2063616c6c6572206973206e6f7420746f6b656e206f776e6560448201527f72206f7220617070726f766564000000000000000000000000000000000000006064820152608401610ceb565b610d8c8383836121de565b6000610f36836114c1565b8210610faa5760405162461bcd60e51b815260206004820152602b60248201527f455243373231456e756d657261626c653a206f776e657220696e646578206f7560448201527f74206f6620626f756e64730000000000000000000000000000000000000000006064820152608401610ceb565b506001600160a01b03919091166000908152600660209081526040808320938352929052205490565b336001600160a01b037f0000000000000000000000000000000000000000000000000000000000000000161461104b5760405162461bcd60e51b815260206004820152601360248201527f756e617574686f72697a65642063616c6c6572000000000000000000000000006044820152606401610ceb565b601380547fffffffffffffffffffffffffffffffffffffffffffffffffffffffffffffff0016911515919091179055565b600a546001600160a01b031633146110d65760405162461bcd60e51b815260206004820152601860248201527f63616c6c6572206973206e6f7420746865206f776e65722e00000000000000006044820152606401610ceb565b60006110e160145490565b90506110f1601480546001019055565b6110fb828261242c565b5050565b610d8c83838360405180602001604052806000815250611bf5565b61112333610ea8565b6111955760405162461bcd60e51b815260206004820152602d60248201527f4552433732313a2063616c6c6572206973206e6f7420746f6b656e206f776e6560448201527f72206f7220617070726f766564000000000000000000000000000000000000006064820152608401610ceb565b61119e81612446565b50565b600c8054610d9e90614437565b60006111b960085490565b821061122d5760405162461bcd60e51b815260206004820152602c60248201527f455243373231456e756d657261626c653a20676c6f62616c20696e646578206f60448201527f7574206f6620626f756e647300000000000000000000000000000000000000006064820152608401610ceb565b6008828154811061124057611240614567565b90600052602060002001549050919050565b600a546001600160a01b031633146112ac5760405162461bcd60e51b815260206004820152601860248201527f63616c6c6572206973206e6f7420746865206f776e65722e00000000000000006044820152606401610ceb565b80516110fb90601290602084019061376b565b60128054610d9e90614437565b6000818152600260205260408120546001600160a01b031680610b9b5760405162461bcd60e51b815260206004820152601860248201527f4552433732313a20696e76616c696420746f6b656e20494400000000000000006044820152606401610ceb565b61133a336114c1565b156113ad5760405162461bcd60e51b815260206004820152602a60248201527f53656e646572206861766520616c72656164792070757263686173656420746860448201527f69732065646974696f6e000000000000000000000000000000000000000000006064820152608401610ceb565b6010546001600160a01b0316156114065760405162461bcd60e51b815260206004820181905260248201527f4e617469766520545258207061796d656e74206e6f7420737570706f727465646044820152606401610ceb565b600f54341461147d5760405162461bcd60e51b815260206004820152602360248201527f496e636f72726563742066756e647320746f206275792074686973206564697460448201527f696f6e00000000000000000000000000000000000000000000000000000000006064820152608401610ceb565b600a546040516001600160a01b03909116903480156108fc02916000818181858888f193505050501580156114b6573d6000803e3d6000fd5b506114bf612501565b565b60006001600160a01b03821661153f5760405162461bcd60e51b815260206004820152602960248201527f4552433732313a2061646472657373207a65726f206973206e6f74206120766160448201527f6c6964206f776e657200000000000000000000000000000000000000000000006064820152608401610ceb565b506001600160a01b031660009081526003602052604090205490565b600a546001600160a01b031633146115b55760405162461bcd60e51b815260206004820152601860248201527f63616c6c6572206973206e6f7420746865206f776e65722e00000000000000006044820152606401610ceb565b6114bf61260e565b6060600f54600014806115d8575060006115d6336114c1565b115b806115ed5750600a546001600160a01b031633145b156115ff57600d8054610bb090614437565b5060408051602081019091526000815290565b61161b336114c1565b1561168e5760405162461bcd60e51b815260206004820152602a60248201527f53656e646572206861766520616c72656164792070757263686173656420746860448201527f69732065646974696f6e000000000000000000000000000000000000000000006064820152608401610ceb565b6010546001600160a01b03166116e65760405162461bcd60e51b815260206004820152601b60248201527f4552433230207061796d656e74206e6f7420737570706f7274656400000000006044820152606401610ceb565b600f546010546040517fdd62ed3e0000000000000000000000000000000000000000000000000000000081523360048201523060248201526001600160a01b039091169063dd62ed3e9060440160206040518083038186803b15801561174b57600080fd5b505afa15801561175f573d6000803e3d6000fd5b505050506040513d601f19601f820116820180604052508101906117839190613c15565b10156117d15760405162461bcd60e51b815260206004820152601b60248201527f4552433230207061796d656e74206e6f7420737570706f7274656400000000006044820152606401610ceb565b601054600a54600f546040517f23b872dd0000000000000000000000000000000000000000000000000000000081523360048201526001600160a01b03928316602482015260448101919091529116906323b872dd90606401602060405180830381600087803b15801561184457600080fd5b505af1158015611858573d6000803e3d6000fd5b505050506040513d601f19601f820116820180604052508101906114b69190613b70565b600b546001600160a01b031633146118fc5760405162461bcd60e51b815260206004820152602c60248201527f63757272656e74206f776e6572206d757374207365742063616c6c657220617360448201527f206e657874206f776e65722e00000000000000000000000000000000000000006064820152608401610ceb565b600b80547fffffffffffffffffffffffff0000000000000000000000000000000000000000908116909155600a80543392168217905560405181907f8be0079c531659141344cd1fd0a4f28419497f9722a3daafe3b4186f6b6457e090600090a3565b6119a86040518060e001604052806060815260200160608152602001606081526020016000815260200160006001600160a01b0316815260200160008152602001600081525090565b604080516020810190915260008152600f5415806119ce575060006119cc336114c1565b115b806119e35750600a546001600160a01b031633145b15611a7657600d80546119f590614437565b80601f0160208091040260200160405190810160405280929190818152602001828054611a2190614437565b8015611a6e5780601f10611a4357610100808354040283529160200191611a6e565b820191906000526020600020905b815481529060010190602001808311611a5157829003601f168201915b505050505090505b6040518060e00160405280600c8054611a8e90614437565b80601f0160208091040260200160405190810160405280929190818152602001828054611aba90614437565b8015611b075780601f10611adc57610100808354040283529160200191611b07565b820191906000526020600020905b815481529060010190602001808311611aea57829003601f168201915b50505050508152602001600e8054611b1e90614437565b80601f0160208091040260200160405190810160405280929190818152602001828054611b4a90614437565b8015611b975780601f10611b6c57610100808354040283529160200191611b97565b820191906000526020600020905b815481529060010190602001808311611b7a57829003601f168201915b505050918352505060208101839052600f5460408201526010546001600160a01b03166060820152601154608082015260a001611bd360085490565b905292915050565b606060018054610bb090614437565b6110fb338383612670565b611bff338361215f565b611c715760405162461bcd60e51b815260206004820152602d60248201527f4552433732313a2063616c6c6572206973206e6f7420746f6b656e206f776e6560448201527f72206f7220617070726f766564000000000000000000000000000000000000006064820152608401610ceb565b611c7d8484848461275d565b50505050565b336001600160a01b037f00000000000000000000000000000000000000000000000000000000000000001614611cfb5760405162461bcd60e51b815260206004820152601360248201527f756e617574686f72697a65642063616c6c6572000000000000000000000000006044820152606401610ceb565b80518051611d1191600c9160209091019061376b565b506020808201518051611d2892600e92019061376b565b5060408101518051611d4291600d9160209091019061376b565b506060810151600f556080810151601080547fffffffffffffffffffffffff0000000000000000000000000000000000000000166001600160a01b0390921691909117905560a08101516011556110fb826127e6565b6000818152600260205260409020546060906001600160a01b0316611e255760405162461bcd60e51b815260206004820152602360248201527f4552433732313a20717565727920666f72206e6f6e6578697374656e7420746f60448201527f6b656e00000000000000000000000000000000000000000000000000000000006064820152608401610ceb565b6000611f0b611ebd600c8054611e3a90614437565b80601f0160208091040260200160405190810160405280929190818152602001828054611e6690614437565b8015611eb35780601f10611e8857610100808354040283529160200191611eb3565b820191906000526020600020905b815481529060010190602001808311611e9657829003601f168201915b505050505061284a565b611ec685612ad1565b611ece612c03565b611ed787612c61565b600e611ee289612ad1565b604051602001611ef796959493929190613f07565b604051602081830303815290604052612c9f565b905080604051602001611f1e91906140c1565b604051602081830303815290604052915050919050565b600a546001600160a01b03163314611f8f5760405162461bcd60e51b815260206004820152601860248201527f63616c6c6572206973206e6f7420746865206f776e65722e00000000000000006044820152606401610ceb565b6001600160a01b038116611fe55760405162461bcd60e51b815260206004820152601f60248201527f4e657874206f776e657220697320746865207a65726f20616464726573732e006044820152606401610ceb565b600b80547fffffffffffffffffffffffff0000000000000000000000000000000000000000166001600160a01b0392909216919091179055565b60007fffffffff0000000000000000000000000000000000000000000000000000000082167f780e9d63000000000000000000000000000000000000000000000000000000001480610b9b5750610b9b82612df3565b6000818152600260205260409020546001600160a01b031661119e5760405162461bcd60e51b815260206004820152601860248201527f4552433732313a20696e76616c696420746f6b656e20494400000000000000006044820152606401610ceb565b600081815260046020526040902080547fffffffffffffffffffffffff0000000000000000000000000000000000000000166001600160a01b0384169081179091558190612126826112cc565b6001600160a01b03167f8c5be1e5ebec7d5bd14f71427d1e84f3dd0314c0f7b2291e5b200ac8c7c3b92560405160405180910390a45050565b60008061216b836112cc565b9050806001600160a01b0316846001600160a01b031614806121b257506001600160a01b0380821660009081526005602090815260408083209388168352929052205460ff165b806121d65750836001600160a01b03166121cb84610c33565b6001600160a01b0316145b949350505050565b826001600160a01b03166121f1826112cc565b6001600160a01b03161461226d5760405162461bcd60e51b815260206004820152602560248201527f4552433732313a207472616e736665722066726f6d20696e636f72726563742060448201527f6f776e65720000000000000000000000000000000000000000000000000000006064820152608401610ceb565b6001600160a01b0382166122e85760405162461bcd60e51b8152602060048201526024808201527f4552433732313a207472616e7366657220746f20746865207a65726f2061646460448201527f72657373000000000000000000000000000000000000000000000000000000006064820152608401610ceb565b6122f58383836001612ed6565b826001600160a01b0316612308826112cc565b6001600160a01b0316146123845760405162461bcd60e51b815260206004820152602560248201527f4552433732313a207472616e736665722066726f6d20696e636f72726563742060448201527f6f776e65720000000000000000000000000000000000000000000000000000006064820152608401610ceb565b600081815260046020908152604080832080547fffffffffffffffffffffffff00000000000000000000000000000000000000009081169091556001600160a01b0387811680865260038552838620805460001901905590871680865283862080546001019055868652600290945282852080549092168417909155905184937fddf252ad1be2c89b69c2b068fc378daa952ba7f163c4a11628f55a4df523b3ef91a4505050565b6110fb828260405180602001604052806000815250612ee2565b6000612451826112cc565b9050612461816000846001612ed6565b61246a826112cc565b600083815260046020908152604080832080547fffffffffffffffffffffffff00000000000000000000000000000000000000009081169091556001600160a01b0385168085526003845282852080546000190190558785526002909352818420805490911690555192935084927fddf252ad1be2c89b69c2b068fc378daa952ba7f163c4a11628f55a4df523b3ef908390a45050565b600061250c60145490565b905061251c601480546001019055565b612526338261242c565b6040517fa7d1e5820000000000000000000000000000000000000000000000000000000081523360048201527f00000000000000000000000000000000000000000000000000000000000000006001600160a01b03169063a7d1e58290602401600060405180830381600087803b1580156125a057600080fd5b505af11580156125b4573d6000803e3d6000fd5b5050600f546010546040805186815260208101939093526001600160a01b0390911682820152513393508392507f5428229ba5454a0da12c99a2223d19f988438680043e982e7b487b50b83d87ae9181900360600190a350565b600a546040516000916001600160a01b0316907f8be0079c531659141344cd1fd0a4f28419497f9722a3daafe3b4186f6b6457e0908390a3600a80547fffffffffffffffffffffffff0000000000000000000000000000000000000000169055565b816001600160a01b0316836001600160a01b031614156126d25760405162461bcd60e51b815260206004820152601960248201527f4552433732313a20617070726f766520746f2063616c6c6572000000000000006044820152606401610ceb565b6001600160a01b0383811660008181526005602090815260408083209487168084529482529182902080547fffffffffffffffffffffffffffffffffffffffffffffffffffffffffffffff001686151590811790915591519182527f17307eab39ab6107e8899845ad3d59bd9653f200f220920489ca2b5937696c31910160405180910390a3505050565b6127688484846121de565b61277484848484612f6b565b611c7d5760405162461bcd60e51b815260206004820152603260248201527f4552433732313a207472616e7366657220746f206e6f6e20455243373231526560448201527f63656976657220696d706c656d656e74657200000000000000000000000000006064820152608401610ceb565b600a80547fffffffffffffffffffffffff0000000000000000000000000000000000000000166001600160a01b0383169081179091556040516000907f8be0079c531659141344cd1fd0a4f28419497f9722a3daafe3b4186f6b6457e0908290a350565b6060816000805b82518160ff1610156128e157828160ff168151811061287257612872614567565b6020910101517fff00000000000000000000000000000000000000000000000000000000000000167f220000000000000000000000000000000000000000000000000000000000000014156128cf57816128cb816144a6565b9250505b806128d9816144a6565b915050612851565b5060ff811615612ac95760008160ff1683516128fd9190614233565b67ffffffffffffffff81111561291557612915614596565b6040519080825280601f01601f19166020018201604052801561293f576020820181803683370190505b5090506000805b84518160ff161015612abe57848160ff168151811061296757612967614567565b6020910101517fff00000000000000000000000000000000000000000000000000000000000000167f22000000000000000000000000000000000000000000000000000000000000001415612a24577f5c0000000000000000000000000000000000000000000000000000000000000083836129e28161448b565b9450815181106129f4576129f4614567565b60200101907effffffffffffffffffffffffffffffffffffffffffffffffffffffffffffff1916908160001a9053505b848160ff1681518110612a3957612a39614567565b01602001517fff00000000000000000000000000000000000000000000000000000000000000168383612a6b8161448b565b945081518110612a7d57612a7d614567565b60200101907effffffffffffffffffffffffffffffffffffffffffffffffffffffffffffff1916908160001a90535080612ab6816144a6565b915050612946565b509095945050505050565b509192915050565b606081612b1157505060408051808201909152600181527f3000000000000000000000000000000000000000000000000000000000000000602082015290565b8160005b8115612b3b5780612b258161448b565b9150612b349050600a83614270565b9150612b15565b60008167ffffffffffffffff811115612b5657612b56614596565b6040519080825280601f01601f191660200182016040528015612b80576020820181803683370190505b5090505b84156121d657612b956001836143d1565b9150612ba2600a866144c6565b612bad906030614233565b60f81b818381518110612bc257612bc2614567565b60200101907effffffffffffffffffffffffffffffffffffffffffffffffffffffffffffff1916908160001a905350612bfc600a86614270565b9450612b84565b600a54606090600c90612c1e906001600160a01b0316613136565b612c29600f54612ad1565b612c3a612c3560085490565b612ad1565b604051602001612c4d9493929190613e15565b604051602081830303815290604052905090565b60606012612c6e30613136565b612c7784612ad1565b604051602001612c8993929190613d65565b6040516020818303038152906040529050919050565b6060815160001415612cbf57505060408051602081019091526000815290565b60006040518060600160405280604081526020016146026040913990506000600384516002612cee9190614233565b612cf89190614270565b612d03906004614391565b67ffffffffffffffff811115612d1b57612d1b614596565b6040519080825280601f01601f191660200182016040528015612d45576020820181803683370190505b509050600182016020820185865187015b80821015612db1576003820191508151603f8160121c168501518453600184019350603f81600c1c168501518453600184019350603f8160061c168501518453600184019350603f8116850151845350600183019250612d56565b5050600386510660018114612dcd5760028114612de057612de8565b603d6001830353603d6002830353612de8565b603d60018303535b509195945050505050565b60007fffffffff0000000000000000000000000000000000000000000000000000000082167f80ac58cd000000000000000000000000000000000000000000000000000000001480612e8657507fffffffff0000000000000000000000000000000000000000000000000000000082167f5b5e139f00000000000000000000000000000000000000000000000000000000145b80610b9b57507f01ffc9a7000000000000000000000000000000000000000000000000000000007fffffffff00000000000000000000000000000000000000000000000000000000831614610b9b565b611c7d848484846132b8565b612eec83836133f4565b612ef96000848484612f6b565b610d8c5760405162461bcd60e51b815260206004820152603260248201527f4552433732313a207472616e7366657220746f206e6f6e20455243373231526560448201527f63656976657220696d706c656d656e74657200000000000000000000000000006064820152608401610ceb565b60006001600160a01b0384163b1561312b576040517f150b7a020000000000000000000000000000000000000000000000000000000081526001600160a01b0385169063150b7a0290612fc8903390899088908890600401614106565b602060405180830381600087803b158015612fe257600080fd5b505af1925050508015613030575060408051601f3d9081017fffffffffffffffffffffffffffffffffffffffffffffffffffffffffffffffe016820190925261302d91810190613baa565b60015b6130e0573d80801561305e576040519150601f19603f3d011682016040523d82523d6000602084013e613063565b606091505b5080516130d85760405162461bcd60e51b815260206004820152603260248201527f4552433732313a207472616e7366657220746f206e6f6e20455243373231526560448201527f63656976657220696d706c656d656e74657200000000000000000000000000006064820152608401610ceb565b805181602001fd5b7fffffffff00000000000000000000000000000000000000000000000000000000167f150b7a02000000000000000000000000000000000000000000000000000000001490506121d6565b506001949350505050565b60408051602880825260608281019093526000919060208201818036833701905050905060005b60148110156132a65760006131738260136143d1565b61317e906008614391565b6131899060026142e9565b61319c906001600160a01b038716614270565b60f81b9050600060108260f81c6131b39190614284565b60f81b905060008160f81c60106131ca91906143b0565b8360f81c6131d891906143e8565b60f81b90506131e6826135a5565b856131f2866002614391565b8151811061320257613202614567565b60200101907effffffffffffffffffffffffffffffffffffffffffffffffffffffffffffff1916908160001a90535061323a816135a5565b85613246866002614391565b613251906001614233565b8151811061326157613261614567565b60200101907effffffffffffffffffffffffffffffffffffffffffffffffffffffffffffff1916908160001a905350505050808061329e9061448b565b91505061315d565b5080604051602001611f1e9190613dd0565b600181111561332f5760405162461bcd60e51b815260206004820152603560248201527f455243373231456e756d657261626c653a20636f6e736563757469766520747260448201527f616e7366657273206e6f7420737570706f7274656400000000000000000000006064820152608401610ceb565b816001600160a01b03851661338b5761338681600880546000838152600960205260408120829055600182018355919091527ff3f7a9fe364faab93b216da50a3214154f22a0a2b415b23a84c8169e8b636ee30155565b6133ae565b836001600160a01b0316856001600160a01b0316146133ae576133ae85826135db565b6001600160a01b0384166133ca576133c581613678565b6133ed565b846001600160a01b0316846001600160a01b0316146133ed576133ed8482613727565b5050505050565b6001600160a01b03821661344a5760405162461bcd60e51b815260206004820181905260248201527f4552433732313a206d696e7420746f20746865207a65726f20616464726573736044820152606401610ceb565b6000818152600260205260409020546001600160a01b0316156134af5760405162461bcd60e51b815260206004820152601c60248201527f4552433732313a20746f6b656e20616c7265616479206d696e746564000000006044820152606401610ceb565b6134bd600083836001612ed6565b6000818152600260205260409020546001600160a01b0316156135225760405162461bcd60e51b815260206004820152601c60248201527f4552433732313a20746f6b656e20616c7265616479206d696e746564000000006044820152606401610ceb565b6001600160a01b038216600081815260036020908152604080832080546001019055848352600290915280822080547fffffffffffffffffffffffff0000000000000000000000000000000000000000168417905551839291907fddf252ad1be2c89b69c2b068fc378daa952ba7f163c4a11628f55a4df523b3ef908290a45050565b6000600a60f883901c10156135cc576135c360f883901c603061424b565b60f81b92915050565b6135c360f883901c605761424b565b600060016135e8846114c1565b6135f291906143d1565b600083815260076020526040902054909150808214613645576001600160a01b03841660009081526006602090815260408083208584528252808320548484528184208190558352600790915290208190555b5060009182526007602090815260408084208490556001600160a01b039094168352600681528383209183525290812055565b60085460009061368a906001906143d1565b600083815260096020526040812054600880549394509092849081106136b2576136b2614567565b9060005260206000200154905080600883815481106136d3576136d3614567565b600091825260208083209091019290925582815260099091526040808220849055858252812055600880548061370b5761370b614538565b6001900381819060005260206000200160009055905550505050565b6000613732836114c1565b6001600160a01b039093166000908152600660209081526040808320868452825280832085905593825260079052919091209190915550565b82805461377790614437565b90600052602060002090601f01602090048101928261379957600085556137df565b82601f106137b257805160ff19168380011785556137df565b828001600101855582156137df579182015b828111156137df5782518255916020019190600101906137c4565b506137eb9291506137ef565b5090565b5b808211156137eb57600081556001016137f0565b600067ffffffffffffffff8084111561381f5761381f614596565b604051601f85017fffffffffffffffffffffffffffffffffffffffffffffffffffffffffffffffe0908116603f0116810190828211818310171561386557613865614596565b8160405280935085815286868601111561387e57600080fd5b858560208301376000602087830101525050509392505050565b6000813574ffffffffffffffffffffffffffffffffffffffffff811681146138bf57600080fd5b6001600160a01b031692915050565b600082601f8301126138df57600080fd5b6138ee83833560208501613804565b9392505050565b60006020828403121561390757600080fd5b6138ee82613898565b6000806040838503121561392357600080fd5b61392c83613898565b915061393a60208401613898565b90509250929050565b60008060006060848603121561395857600080fd5b61396184613898565b925061396f60208501613898565b9150604084013590509250925092565b6000806000806080858703121561399557600080fd5b61399e85613898565b93506139ac60208601613898565b925060408501359150606085013567ffffffffffffffff8111156139cf57600080fd5b8501601f810187136139e057600080fd5b6139ef87823560208401613804565b91505092959194509250565b60008060408385031215613a0e57600080fd5b613a1783613898565b91506020830135613a27816145c5565b809150509250929050565b60008060408385031215613a4557600080fd5b613a4e83613898565b9150602083013567ffffffffffffffff80821115613a6b57600080fd5b9084019060e08287031215613a7f57600080fd5b613a8761420a565b823582811115613a9657600080fd5b613aa2888286016138ce565b825250602083013582811115613ab757600080fd5b613ac3888286016138ce565b602083015250604083013582811115613adb57600080fd5b613ae7888286016138ce565b60408301525060608301356060820152613b0360808401613898565b608082015260a083013560a082015260c083013560c08201528093505050509250929050565b60008060408385031215613b3c57600080fd5b613b4583613898565b946020939093013593505050565b600060208284031215613b6557600080fd5b81356138ee816145c5565b600060208284031215613b8257600080fd5b81516138ee816145c5565b600060208284031215613b9f57600080fd5b81356138ee816145d3565b600060208284031215613bbc57600080fd5b81516138ee816145d3565b600060208284031215613bd957600080fd5b813567ffffffffffffffff811115613bf057600080fd5b6121d6848285016138ce565b600060208284031215613c0e57600080fd5b5035919050565b600060208284031215613c2757600080fd5b5051919050565b60008151808452613c4681602086016020860161440b565b601f017fffffffffffffffffffffffffffffffffffffffffffffffffffffffffffffffe0169290920160200192915050565b60008151613c8a81856020860161440b565b9290920192915050565b8054600090600181811c9080831680613cae57607f831692505b6020808410821415613ce9577f4e487b7100000000000000000000000000000000000000000000000000000000600052602260045260246000fd5b818015613cfd5760018114613d2c57613d59565b7fffffffffffffffffffffffffffffffffffffffffffffffffffffffffffffff00861689528489019650613d59565b60008881526020902060005b86811015613d515781548b820152908501908301613d38565b505084890196505b50505050505092915050565b6000613d718286613c94565b7f2f000000000000000000000000000000000000000000000000000000000000008082528551613da8816001850160208a0161440b565b60019201918201528351613dc381600284016020880161440b565b0160020195945050505050565b7f3078000000000000000000000000000000000000000000000000000000000000815260008251613e0881600285016020870161440b565b9190910160020192915050565b7f45646974696f6e205469746c653a20000000000000000000000000000000000081526000613e47600f830187613c94565b7f2c2045646974696f6e204f776e65723a2000000000000000000000000000000081528551613e7d816011840160208a0161440b565b7f2c2045646974696f6e2050726963653a20000000000000000000000000000000601192909101918201528451613ebb81602284016020890161440b565b7f2c20546f74616c205075726368617365643a2000000000000000000000000000602292909101918201528351613ef981603584016020880161440b565b016035019695505050505050565b7f7b226e616d65223a202200000000000000000000000000000000000000000000815260008751613f3f81600a850160208c0161440b565b7f2000000000000000000000000000000000000000000000000000000000000000600a918401918201528751613f7c81600b840160208c0161440b565b7f222c20226465736372697074696f6e223a202200000000000000000000000000600b92909101918201528651613fba81601e840160208b0161440b565b7f222c202265787465726e616c5f75726c223a2000000000000000000000000000601e92909101918201528551613ff8816031840160208a0161440b565b7f222c2022696d616765223a20000000000000000000000000000000000000000060319290910191820152614030603d820186613c94565b90507f222c202261747472696275746573223a5b7b202274726169745f74797065223a81527f202245646974696f6e2053657269616c222c202276616c7565223a200000000060208201526140b461408b603c830186613c78565b7f7d5d207d00000000000000000000000000000000000000000000000000000000815260040190565b9998505050505050505050565b7f646174613a6170706c69636174696f6e2f6a736f6e3b6261736536342c0000008152600082516140f981601d85016020870161440b565b91909101601d0192915050565b60006001600160a01b038087168352808616602084015250836040830152608060608301526141386080830184613c2e565b9695505050505050565b6020815260006138ee6020830184613c2e565b602081526000825160e06020840152614172610100840182613c2e565b905060208401517fffffffffffffffffffffffffffffffffffffffffffffffffffffffffffffffe0808584030160408601526141ae8383613c2e565b92506040860151915080858403016060860152506141cc8282613c2e565b915050606084015160808401526001600160a01b0360808501511660a084015260a084015160c084015260c084015160e08401528091505092915050565b60405160e0810167ffffffffffffffff8111828210171561422d5761422d614596565b60405290565b60008219821115614246576142466144da565b500190565b600060ff821660ff84168060ff03821115614268576142686144da565b019392505050565b60008261427f5761427f614509565b500490565b600060ff83168061429757614297614509565b8060ff84160491505092915050565b600181815b808511156142e15781600019048211156142c7576142c76144da565b808516156142d457918102915b93841c93908002906142ab565b509250929050565b60006138ee83836000826142ff57506001610b9b565b8161430c57506000610b9b565b8160018114614322576002811461432c57614348565b6001915050610b9b565b60ff84111561433d5761433d6144da565b50506001821b610b9b565b5060208310610133831016604e8410600b841016171561436b575081810a610b9b565b61437583836142a6565b8060001904821115614389576143896144da565b029392505050565b60008160001904831182151516156143ab576143ab6144da565b500290565b600060ff821660ff84168160ff0481118215151615614389576143896144da565b6000828210156143e3576143e36144da565b500390565b600060ff821660ff841680821015614402576144026144da565b90039392505050565b60005b8381101561442657818101518382015260200161440e565b83811115611c7d5750506000910152565b600181811c9082168061444b57607f821691505b60208210811415614485577f4e487b7100000000000000000000000000000000000000000000000000000000600052602260045260246000fd5b50919050565b600060001982141561449f5761449f6144da565b5060010190565b600060ff821660ff8114156144bd576144bd6144da565b60010192915050565b6000826144d5576144d5614509565b500690565b7f4e487b7100000000000000000000000000000000000000000000000000000000600052601160045260246000fd5b7f4e487b7100000000000000000000000000000000000000000000000000000000600052601260045260246000fd5b7f4e487b7100000000000000000000000000000000000000000000000000000000600052603160045260246000fd5b7f4e487b7100000000000000000000000000000000000000000000000000000000600052603260045260246000fd5b7f4e487b7100000000000000000000000000000000000000000000000000000000600052604160045260246000fd5b801515811461119e57600080fd5b7fffffffff000000000000000000000000000000000000000000000000000000008116811461119e57600080fdfe4142434445464748494a4b4c4d4e4f505152535455565758595a6162636465666768696a6b6c6d6e6f707172737475767778797a303132333435363738392b2fa26474726f6e58221220c0e08a4331bb39eb1d333fd334545e2b61712bcaa40475ce2b26c6e040792e4d64736f6c63430008060033",
  "source": "// SPDX-License-Identifier: MIT\npragma solidity ^0.8.0;\n\nimport \"../standard/IERC20.sol\";\nimport \"../standard/ERC721.sol\";\nimport \"../standard/ERC721Enumerable.sol\";\nimport \"../standard/ERC721Burnable.sol\";\nimport \"../standard/Ownable.sol\";\nimport \"../standard/Base64.sol\";\nimport \"../standard/Counters.sol\";\nimport \"./IThoughtEdition.sol\";\nimport \"./IThoughtEditionFactory.sol\";\n\ncontract ThoughtEdition is ERC721, ERC721Enumerable, ERC721Burnable, Ownable, IThoughtEdition {\n\n    /// @notice Address that deploys and initializes clones.\n    address public immutable factory;\n\n    /// > [[[[[[[[[[[ Token Data ]]]]]]]]]]]\n    /// @notice Token title.\n    string public title;\n\n    /// @notice Token text content, stored in IPFS.\n    string private contentURI;\n\n    /// @notice Token image content, stored in IPFS.\n    string public imageURI;\n\n    /// @notice Token price, set by the owner.\n    uint256 public price;\n\n    /// @notice Token accepts erc20 as payment, set by the owner.\n    address public paymentERC20Addr;\n\n    /// @notice Token creation timpestamp.\n    uint256 public createdAt;\n\n    /// @notice Base URI for metadata.\n    string public baseMetadataURI;\n\n    /// @notice If edition is blacklisted.\n    bool public isBlacklisted;\n\n    /// @notice Implementation logic for clones.\n    /// @param _factory the factory contract deploying clones with this implementation.\n    constructor(address _factory, string memory _baseMetadataURI) ERC721(\"ThoughtEdition\", \"THT\") Ownable(address(0)) {\n        // Assert not the zero-address.\n        require(_factory != address(0), \"must set factory\");\n\n        // Store factory.\n        factory = _factory;\n        // Store baseURI\n        baseMetadataURI = _baseMetadataURI;\n    }\n\n    /// @notice Initialize a clone by storing edition parameters. Called only by the factory. \n    /// @param _owner owner of the clone.\n    /// @param edition edition parameters used to deploy the clone.\n    function initialize(address _owner, ThoughtEdition memory edition) override external {\n        // Only factory can call this function.\n        require(msg.sender == factory, \"unauthorized caller\");\n\n        // Store edition data.\n        title = edition.title;\n        imageURI = edition.imageURI;\n        contentURI = edition.contentURI;\n        price = edition.price;\n        paymentERC20Addr = edition.paymentERC20Addr;\n        createdAt = edition.createdAt;\n        \n        // Store owner.\n        _setInitialOwner(_owner);\n    }\n\n    using Counters for Counters.Counter;\n\n    Counters.Counter private _tokenIdCounter;\n\n    function safeMint(address to) override external onlyOwner {\n        uint256 tokenId = _tokenIdCounter.current();\n        _tokenIdCounter.increment();\n        _safeMint(to, tokenId);\n    }\n\n    modifier checkPurchase() {\n        require(balanceOf(msg.sender) == 0, \"Sender have already purchased this edition\");\n        require(paymentERC20Addr == address(0), \"Native TRX payment not supported\");\n        require(msg.value == price, \"Incorrect funds to buy this edition\");\n        _;\n    }\n\n    modifier checkPurchaseERC20() {\n        require(balanceOf(msg.sender) == 0, \"Sender have already purchased this edition\");\n        require(paymentERC20Addr != address(0), \"ERC20 payment not supported\");\n        require(IERC20(paymentERC20Addr).allowance(msg.sender, address(this)) >= price, \"ERC20 payment not supported\");\n        _;\n    }\n\n    function mintEdition() private {\n        uint256 tokenId = _tokenIdCounter.current();\n        _tokenIdCounter.increment();\n        _safeMint(msg.sender, tokenId);\n        IThoughtEditionFactory(factory).registerClaim(msg.sender);\n        emit ThoughtEditionPurchased(msg.sender, tokenId, msg.sender, price, paymentERC20Addr);\n    }\n\n    function purchase() override external payable checkPurchase {\n        payable(owner).transfer(msg.value);\n        mintEdition();\n    }\n\n    function purchaseERC20() override external checkPurchaseERC20 {\n       IERC20(paymentERC20Addr).transferFrom(msg.sender, payable(owner), price);\n       mintEdition();\n    }\n    \n    // The following functions are overrides required by Solidity.\n    function _beforeTokenTransfer(address from, address to, uint256 tokenId, uint256 batchSize) internal override(ERC721, ERC721Enumerable) {\n        super._beforeTokenTransfer(from, to, tokenId, batchSize);\n    }\n\n    function supportsInterface(bytes4 interfaceId) public view override(ERC721, ERC721Enumerable) returns (bool) {\n        return super.supportsInterface(interfaceId);\n    }\n   \n    function getContentURI() override external view returns (string memory) {\n        if (price == 0 || balanceOf(msg.sender) > 0 || isOwner()) return contentURI;\n        return  \"\";\n    }\n\n    /// @notice Get `tokenId` URI or data\n    /// @param tokenId The tokenId used to request data\n    function tokenURI(uint256 tokenId) public view virtual override returns (string memory) {\n        require(_exists(tokenId), \"ERC721: query for nonexistent token\");\n         string memory json = Base64.encode(\n            bytes(\n                string(\n                    abi.encodePacked(\n                        '{\"name\": \"', _escapeQuotes(title),\" \", Strings.toString(tokenId),\n                        '\", \"description\": \"', description(),\n                        '\", \"external_url\": ', getExternalURL(tokenId),\n                        '\", \"image\": ', imageURI,\n                        '\", \"attributes\":[{ \"trait_type\": \"Edition Serial\", \"value\": ',\n                        Strings.toString(tokenId),\n                        \"}] }\"\n                    )\n                )\n            )\n        );\n        return string(abi.encodePacked(\"data:application/json;base64,\", json));\n    }\n\n    /// @notice External Url.\n    function getExternalURL(uint256 tokenId) private view returns (string memory) {\n        return string(abi.encodePacked(baseMetadataURI, \"/\", _addressToString(address(this)), \"/\", Strings.toString(tokenId)));\n    }\n\n    /// @notice Edition details\n    function description() private view returns (string memory) {\n        return string(abi.encodePacked(\"Edition Title: \", title, \", Edition Owner: \",  _addressToString(address(owner)), \", Edition Price: \", Strings.toString(price),  \", Total Purchased: \", Strings.toString(totalSupply())));\n    }\n\n    // @notice Get Edition details\n    function getEdition() external view override returns (ThoughtEdition memory) {\n        string memory _contentURI = \"\";\n        if (price == 0 || balanceOf(msg.sender) > 0 || isOwner()) {\n            _contentURI = contentURI;\n        } \n        return ThoughtEdition({\n            title: title,\n            imageURI: imageURI,\n            contentURI: _contentURI,\n            price: price,\n            paymentERC20Addr: paymentERC20Addr,\n            createdAt: createdAt, \n            totalPurchased: totalSupply()\n        });\n    }\n\n    function setBaseURI(string memory uri) external override onlyOwner {\n        baseMetadataURI = uri;\n    }\n\n    function _baseURI() internal view virtual override returns (string memory) {\n        return baseMetadataURI;\n    }\n\n    function _escapeQuotes(\n        string memory str\n    ) internal pure returns (string memory) {\n        bytes memory strBytes = bytes(str);\n        uint8 quotesCount = 0;\n        for (uint8 i = 0; i < strBytes.length; i++) {\n            if (strBytes[i] == '\"') {\n                quotesCount++;\n            }\n        }\n        if (quotesCount > 0) {\n            bytes memory escapedBytes = new bytes(\n                strBytes.length + (quotesCount)\n            );\n            uint256 index;\n            for (uint8 i = 0; i < strBytes.length; i++) {\n                if (strBytes[i] == '\"') {\n                    escapedBytes[index++] = \"\\\\\";\n                }\n                escapedBytes[index++] = strBytes[i];\n            }\n            return string(escapedBytes);\n        }\n        return str;\n    }\n\n    // https://ethereum.stackexchange.com/questions/8346/convert-address-to-string/8447#8447\n    function _addressToString(address x) internal pure returns (string memory) {\n        bytes memory s = new bytes(40);\n        for (uint256 i = 0; i < 20; i++) {\n            bytes1 b = bytes1(\n                uint8(uint256(uint160(x)) / (2 ** (8 * (19 - i))))\n            );\n            bytes1 hi = bytes1(uint8(b) / 16);\n            bytes1 lo = bytes1(uint8(b) - 16 * uint8(hi));\n            s[2 * i] = _char(hi);\n            s[2 * i + 1] = _char(lo);\n        }\n        return string(abi.encodePacked(\"0x\", s));\n    }\n\n    function _char(bytes1 b) internal pure returns (bytes1 c) {\n        if (uint8(b) < 10) return bytes1(uint8(b) + 0x30);\n        else return bytes1(uint8(b) + 0x57);\n    }\n\n    function setBlacklisted(bool val) external override {\n        // Only factory can call this function.\n        require(msg.sender == factory, \"unauthorized caller\");\n        isBlacklisted = val;\n    }\n}",
  "sourcePath": "/Users/a0p0bhv/Desktop/thuoghts/thoughts-smart-contracts/contracts/writing-editions/ThoughtEdition.sol",
  "compiler": {
    "name": "solc",
    "version": "0.8.6+commit.0e36fba0.mod.Emscripten.clang"
  },
  "schemaVersion": "2.0.1",
  "updatedAt": "2023-11-29T09:08:49.097Z"
}